{
  "_format": "hh-sol-artifact-1",
  "contractName": "Land",
  "sourceName": "contracts/Land.sol",
  "abi": [
    {
      "inputs": [
        {
          "internalType": "address",
          "name": "landExchangeContractAddr",
          "type": "address"
        },
        {
          "internalType": "address",
          "name": "spaceContractAddr",
          "type": "address"
        },
        {
          "internalType": "address",
          "name": "landOperatorAddr",
          "type": "address"
        }
      ],
      "stateMutability": "nonpayable",
      "type": "constructor"
    },
    {
      "anonymous": false,
      "inputs": [
        {
          "indexed": true,
          "internalType": "address",
          "name": "owner",
          "type": "address"
        },
        {
          "indexed": true,
          "internalType": "address",
          "name": "approved",
          "type": "address"
        },
        {
          "indexed": true,
          "internalType": "uint256",
          "name": "tokenId",
          "type": "uint256"
        }
      ],
      "name": "Approval",
      "type": "event"
    },
    {
      "anonymous": false,
      "inputs": [
        {
          "indexed": true,
          "internalType": "address",
          "name": "owner",
          "type": "address"
        },
        {
          "indexed": true,
          "internalType": "address",
          "name": "operator",
          "type": "address"
        },
        {
          "indexed": false,
          "internalType": "bool",
          "name": "approved",
          "type": "bool"
        }
      ],
      "name": "ApprovalForAll",
      "type": "event"
    },
    {
      "anonymous": false,
      "inputs": [
        {
          "indexed": false,
          "internalType": "address",
          "name": "owner",
          "type": "address"
        },
        {
          "indexed": false,
          "internalType": "address",
          "name": "_newLandOperatorAddress",
          "type": "address"
        }
      ],
      "name": "LandOperatorAddressUpdated",
      "type": "event"
    },
    {
      "anonymous": false,
      "inputs": [
        {
          "indexed": true,
          "internalType": "uint256",
          "name": "_tokenId",
          "type": "uint256"
        },
        {
          "indexed": false,
          "internalType": "address",
          "name": "owner",
          "type": "address"
        },
        {
          "indexed": false,
          "internalType": "string",
          "name": "_uri",
          "type": "string"
        }
      ],
      "name": "TokenMetadataURIUpdated",
      "type": "event"
    },
    {
      "anonymous": false,
      "inputs": [
        {
          "indexed": true,
          "internalType": "uint256",
          "name": "_tokenId",
          "type": "uint256"
        },
        {
          "indexed": false,
          "internalType": "address",
          "name": "owner",
          "type": "address"
        }
      ],
      "name": "TokenSpaceRemoved",
      "type": "event"
    },
    {
      "anonymous": false,
      "inputs": [
        {
          "indexed": true,
          "internalType": "uint256",
          "name": "_tokenId",
          "type": "uint256"
        },
        {
          "indexed": false,
          "internalType": "address",
          "name": "owner",
          "type": "address"
        },
        {
          "indexed": false,
          "internalType": "uint256",
          "name": "spaceTokenId",
          "type": "uint256"
        }
      ],
      "name": "TokenSpaceUpdated",
      "type": "event"
    },
    {
      "anonymous": false,
      "inputs": [
        {
          "indexed": true,
          "internalType": "uint256",
          "name": "_tokenId",
          "type": "uint256"
        },
        {
          "indexed": false,
          "internalType": "address",
          "name": "owner",
          "type": "address"
        },
        {
          "indexed": false,
          "internalType": "string",
          "name": "_uri",
          "type": "string"
        }
      ],
      "name": "TokenURIUpdated",
      "type": "event"
    },
    {
      "anonymous": false,
      "inputs": [
        {
          "indexed": true,
          "internalType": "address",
          "name": "from",
          "type": "address"
        },
        {
          "indexed": true,
          "internalType": "address",
          "name": "to",
          "type": "address"
        },
        {
          "indexed": true,
          "internalType": "uint256",
          "name": "tokenId",
          "type": "uint256"
        }
      ],
      "name": "Transfer",
      "type": "event"
    },
    {
      "inputs": [
        {
          "internalType": "uint256",
          "name": "tokenId",
          "type": "uint256"
        },
        {
          "components": [
            {
              "internalType": "uint256",
              "name": "amount",
              "type": "uint256"
            },
            {
              "internalType": "address",
              "name": "currency",
              "type": "address"
            },
            {
              "internalType": "address",
              "name": "bidder",
              "type": "address"
            },
            {
              "internalType": "address",
              "name": "recipient",
              "type": "address"
            },
            {
              "components": [
                {
                  "internalType": "uint256",
                  "name": "value",
                  "type": "uint256"
                }
              ],
              "internalType": "struct Decimal.D256",
              "name": "sellOnShare",
              "type": "tuple"
            }
          ],
          "internalType": "struct ILandExchange.Bid",
          "name": "bid",
          "type": "tuple"
        }
      ],
      "name": "acceptBid",
      "outputs": [],
      "stateMutability": "nonpayable",
      "type": "function"
    },
    {
      "inputs": [],
      "name": "allCoordinates",
      "outputs": [
        {
          "internalType": "int256[]",
          "name": "",
          "type": "int256[]"
        },
        {
          "internalType": "int256[]",
          "name": "",
          "type": "int256[]"
        }
      ],
      "stateMutability": "view",
      "type": "function"
    },
    {
      "inputs": [
        {
          "internalType": "address",
          "name": "to",
          "type": "address"
        },
        {
          "internalType": "uint256",
          "name": "tokenId",
          "type": "uint256"
        }
      ],
      "name": "approve",
      "outputs": [],
      "stateMutability": "nonpayable",
      "type": "function"
    },
    {
      "inputs": [
        {
          "internalType": "address",
          "name": "owner",
          "type": "address"
        }
      ],
      "name": "balanceOf",
      "outputs": [
        {
          "internalType": "uint256",
          "name": "",
          "type": "uint256"
        }
      ],
      "stateMutability": "view",
      "type": "function"
    },
    {
      "inputs": [],
      "name": "baseURI",
      "outputs": [
        {
          "internalType": "string",
          "name": "",
          "type": "string"
        }
      ],
      "stateMutability": "view",
      "type": "function"
    },
    {
      "inputs": [
        {
          "internalType": "uint256",
          "name": "tokenId",
          "type": "uint256"
        }
      ],
      "name": "burn",
      "outputs": [],
      "stateMutability": "nonpayable",
      "type": "function"
    },
    {
      "inputs": [
        {
          "internalType": "uint256",
          "name": "tokenId",
          "type": "uint256"
        },
        {
          "internalType": "address",
          "name": "sender",
          "type": "address"
        }
      ],
      "name": "checkSpaceAttach",
      "outputs": [
        {
          "internalType": "bool",
          "name": "",
          "type": "bool"
        }
      ],
      "stateMutability": "view",
      "type": "function"
    },
    {
      "inputs": [
        {
          "internalType": "uint256",
          "name": "tokenId",
          "type": "uint256"
        }
      ],
      "name": "getApproved",
      "outputs": [
        {
          "internalType": "address",
          "name": "",
          "type": "address"
        }
      ],
      "stateMutability": "view",
      "type": "function"
    },
    {
      "inputs": [
        {
          "internalType": "address",
          "name": "owner",
          "type": "address"
        },
        {
          "internalType": "address",
          "name": "operator",
          "type": "address"
        }
      ],
      "name": "isApprovedForAll",
      "outputs": [
        {
          "internalType": "bool",
          "name": "",
          "type": "bool"
        }
      ],
      "stateMutability": "view",
      "type": "function"
    },
    {
      "inputs": [],
      "name": "landExchangeContract",
      "outputs": [
        {
          "internalType": "address",
          "name": "",
          "type": "address"
        }
      ],
      "stateMutability": "view",
      "type": "function"
    },
    {
      "inputs": [],
      "name": "landOperatorAddress",
      "outputs": [
        {
          "internalType": "address",
          "name": "",
          "type": "address"
        }
      ],
      "stateMutability": "view",
      "type": "function"
    },
    {
      "inputs": [
        {
          "internalType": "uint256",
          "name": "tokenId",
          "type": "uint256"
        },
        {
          "internalType": "address",
          "name": "recipient",
          "type": "address"
        }
      ],
      "name": "listTransfer",
      "outputs": [],
      "stateMutability": "nonpayable",
      "type": "function"
    },
    {
      "inputs": [],
      "name": "maxSupply",
      "outputs": [
        {
          "internalType": "uint256",
          "name": "",
          "type": "uint256"
        }
      ],
      "stateMutability": "view",
      "type": "function"
    },
    {
      "inputs": [
        {
          "components": [
            {
              "internalType": "string",
              "name": "tokenURI",
              "type": "string"
            },
            {
              "internalType": "string",
              "name": "metadataURI",
              "type": "string"
            },
            {
              "internalType": "bytes32",
              "name": "contentHash",
              "type": "bytes32"
            },
            {
              "internalType": "bytes32",
              "name": "metadataHash",
              "type": "bytes32"
            },
            {
              "internalType": "int256",
              "name": "xCoordinate",
              "type": "int256"
            },
            {
              "internalType": "int256",
              "name": "yCoordinate",
              "type": "int256"
            }
          ],
          "internalType": "struct ILand.LandData",
          "name": "data",
          "type": "tuple"
        },
        {
          "components": [
            {
              "components": [
                {
                  "internalType": "uint256",
                  "name": "value",
                  "type": "uint256"
                }
              ],
              "internalType": "struct Decimal.D256",
              "name": "prevOwner",
              "type": "tuple"
            },
            {
              "components": [
                {
                  "internalType": "uint256",
                  "name": "value",
                  "type": "uint256"
                }
              ],
              "internalType": "struct Decimal.D256",
              "name": "creator",
              "type": "tuple"
            },
            {
              "components": [
                {
                  "internalType": "uint256",
                  "name": "value",
                  "type": "uint256"
                }
              ],
              "internalType": "struct Decimal.D256",
              "name": "owner",
              "type": "tuple"
            }
          ],
          "internalType": "struct ILandExchange.BidShares",
          "name": "bidShares",
          "type": "tuple"
        }
      ],
      "name": "mint",
      "outputs": [],
      "stateMutability": "nonpayable",
      "type": "function"
    },
    {
      "inputs": [
        {
          "components": [
            {
              "internalType": "string",
              "name": "tokenURI",
              "type": "string"
            },
            {
              "internalType": "string",
              "name": "metadataURI",
              "type": "string"
            },
            {
              "internalType": "bytes32",
              "name": "contentHash",
              "type": "bytes32"
            },
            {
              "internalType": "bytes32",
              "name": "metadataHash",
              "type": "bytes32"
            },
            {
              "internalType": "int256",
              "name": "xCoordinate",
              "type": "int256"
            },
            {
              "internalType": "int256",
              "name": "yCoordinate",
              "type": "int256"
            }
          ],
          "internalType": "struct ILand.LandData[]",
          "name": "data",
          "type": "tuple[]"
        },
        {
          "components": [
            {
              "components": [
                {
                  "internalType": "uint256",
                  "name": "value",
                  "type": "uint256"
                }
              ],
              "internalType": "struct Decimal.D256",
              "name": "prevOwner",
              "type": "tuple"
            },
            {
              "components": [
                {
                  "internalType": "uint256",
                  "name": "value",
                  "type": "uint256"
                }
              ],
              "internalType": "struct Decimal.D256",
              "name": "creator",
              "type": "tuple"
            },
            {
              "components": [
                {
                  "internalType": "uint256",
                  "name": "value",
                  "type": "uint256"
                }
              ],
              "internalType": "struct Decimal.D256",
              "name": "owner",
              "type": "tuple"
            }
          ],
          "internalType": "struct ILandExchange.BidShares[]",
          "name": "bidShares",
          "type": "tuple[]"
        }
      ],
      "name": "mintMultiple",
      "outputs": [],
      "stateMutability": "nonpayable",
      "type": "function"
    },
    {
      "inputs": [],
      "name": "name",
      "outputs": [
        {
          "internalType": "string",
          "name": "",
          "type": "string"
        }
      ],
      "stateMutability": "view",
      "type": "function"
    },
    {
      "inputs": [
        {
          "internalType": "uint256",
          "name": "tokenId",
          "type": "uint256"
        }
      ],
      "name": "ownerOf",
      "outputs": [
        {
          "internalType": "address",
          "name": "",
          "type": "address"
        }
      ],
      "stateMutability": "view",
      "type": "function"
    },
    {
      "inputs": [
        {
          "internalType": "uint256",
          "name": "",
          "type": "uint256"
        }
      ],
      "name": "previousTokenOwners",
      "outputs": [
        {
          "internalType": "address",
          "name": "",
          "type": "address"
        }
      ],
      "stateMutability": "view",
      "type": "function"
    },
    {
      "inputs": [
        {
          "internalType": "uint256",
          "name": "tokenId",
          "type": "uint256"
        }
      ],
      "name": "removeAsk",
      "outputs": [],
      "stateMutability": "nonpayable",
      "type": "function"
    },
    {
      "inputs": [
        {
          "internalType": "uint256",
          "name": "tokenId",
          "type": "uint256"
        }
      ],
      "name": "removeBid",
      "outputs": [],
      "stateMutability": "nonpayable",
      "type": "function"
    },
    {
      "inputs": [
        {
          "internalType": "uint256",
          "name": "tokenId",
          "type": "uint256"
        }
      ],
      "name": "removeTokenSpace",
      "outputs": [],
      "stateMutability": "nonpayable",
      "type": "function"
    },
    {
      "inputs": [
        {
          "internalType": "uint256",
          "name": "tokenId",
          "type": "uint256"
        }
      ],
      "name": "revokeApproval",
      "outputs": [],
      "stateMutability": "nonpayable",
      "type": "function"
    },
    {
      "inputs": [
        {
          "internalType": "address",
          "name": "from",
          "type": "address"
        },
        {
          "internalType": "address",
          "name": "to",
          "type": "address"
        },
        {
          "internalType": "uint256",
          "name": "tokenId",
          "type": "uint256"
        }
      ],
      "name": "safeTransferFrom",
      "outputs": [],
      "stateMutability": "nonpayable",
      "type": "function"
    },
    {
      "inputs": [
        {
          "internalType": "address",
          "name": "from",
          "type": "address"
        },
        {
          "internalType": "address",
          "name": "to",
          "type": "address"
        },
        {
          "internalType": "uint256",
          "name": "tokenId",
          "type": "uint256"
        },
        {
          "internalType": "bytes",
          "name": "_data",
          "type": "bytes"
        }
      ],
      "name": "safeTransferFrom",
      "outputs": [],
      "stateMutability": "nonpayable",
      "type": "function"
    },
    {
      "inputs": [
        {
          "internalType": "address",
          "name": "operator",
          "type": "address"
        },
        {
          "internalType": "bool",
          "name": "approved",
          "type": "bool"
        }
      ],
      "name": "setApprovalForAll",
      "outputs": [],
      "stateMutability": "nonpayable",
      "type": "function"
    },
    {
      "inputs": [
        {
          "internalType": "uint256",
          "name": "tokenId",
          "type": "uint256"
        },
        {
          "components": [
            {
              "internalType": "uint256",
              "name": "amount",
              "type": "uint256"
            },
            {
              "internalType": "address",
              "name": "currency",
              "type": "address"
            }
          ],
          "internalType": "struct ILandExchange.Ask",
          "name": "ask",
          "type": "tuple"
        }
      ],
      "name": "setAsk",
      "outputs": [],
      "stateMutability": "nonpayable",
      "type": "function"
    },
    {
      "inputs": [
        {
          "internalType": "uint256",
          "name": "tokenId",
          "type": "uint256"
        },
        {
          "components": [
            {
              "internalType": "uint256",
              "name": "amount",
              "type": "uint256"
            },
            {
              "internalType": "address",
              "name": "currency",
              "type": "address"
            },
            {
              "internalType": "address",
              "name": "bidder",
              "type": "address"
            },
            {
              "internalType": "address",
              "name": "recipient",
              "type": "address"
            },
            {
              "components": [
                {
                  "internalType": "uint256",
                  "name": "value",
                  "type": "uint256"
                }
              ],
              "internalType": "struct Decimal.D256",
              "name": "sellOnShare",
              "type": "tuple"
            }
          ],
          "internalType": "struct ILandExchange.Bid",
          "name": "bid",
          "type": "tuple"
        }
      ],
      "name": "setBid",
      "outputs": [],
      "stateMutability": "nonpayable",
      "type": "function"
    },
    {
      "inputs": [],
      "name": "spaceContract",
      "outputs": [
        {
          "internalType": "address",
          "name": "",
          "type": "address"
        }
      ],
      "stateMutability": "view",
      "type": "function"
    },
    {
      "inputs": [
        {
          "internalType": "bytes4",
          "name": "interfaceId",
          "type": "bytes4"
        }
      ],
      "name": "supportsInterface",
      "outputs": [
        {
          "internalType": "bool",
          "name": "",
          "type": "bool"
        }
      ],
      "stateMutability": "view",
      "type": "function"
    },
    {
      "inputs": [],
      "name": "symbol",
      "outputs": [
        {
          "internalType": "string",
          "name": "",
          "type": "string"
        }
      ],
      "stateMutability": "view",
      "type": "function"
    },
    {
      "inputs": [
        {
          "internalType": "uint256",
          "name": "index",
          "type": "uint256"
        }
      ],
      "name": "tokenByIndex",
      "outputs": [
        {
          "internalType": "uint256",
          "name": "",
          "type": "uint256"
        }
      ],
      "stateMutability": "view",
      "type": "function"
    },
    {
      "inputs": [
        {
          "internalType": "uint256",
          "name": "",
          "type": "uint256"
        }
      ],
      "name": "tokenContentHashes",
      "outputs": [
        {
          "internalType": "bytes32",
          "name": "",
          "type": "bytes32"
        }
      ],
      "stateMutability": "view",
      "type": "function"
    },
    {
      "inputs": [
        {
          "internalType": "uint256",
          "name": "",
          "type": "uint256"
        }
      ],
      "name": "tokenCreators",
      "outputs": [
        {
          "internalType": "address",
          "name": "",
          "type": "address"
        }
      ],
      "stateMutability": "view",
      "type": "function"
    },
    {
      "inputs": [
        {
          "internalType": "uint256",
          "name": "tokenId",
          "type": "uint256"
        }
      ],
      "name": "tokenLandCoordinates",
      "outputs": [
        {
          "internalType": "int256",
          "name": "",
          "type": "int256"
        },
        {
          "internalType": "int256",
          "name": "",
          "type": "int256"
        }
      ],
      "stateMutability": "view",
      "type": "function"
    },
    {
      "inputs": [
        {
          "internalType": "uint256",
          "name": "",
          "type": "uint256"
        }
      ],
      "name": "tokenMetadataHashes",
      "outputs": [
        {
          "internalType": "bytes32",
          "name": "",
          "type": "bytes32"
        }
      ],
      "stateMutability": "view",
      "type": "function"
    },
    {
      "inputs": [
        {
          "internalType": "uint256",
          "name": "tokenId",
          "type": "uint256"
        }
      ],
      "name": "tokenMetadataURI",
      "outputs": [
        {
          "internalType": "string",
          "name": "",
          "type": "string"
        }
      ],
      "stateMutability": "view",
      "type": "function"
    },
    {
      "inputs": [
        {
          "internalType": "address",
          "name": "owner",
          "type": "address"
        },
        {
          "internalType": "uint256",
          "name": "index",
          "type": "uint256"
        }
      ],
      "name": "tokenOfOwnerByIndex",
      "outputs": [
        {
          "internalType": "uint256",
          "name": "",
          "type": "uint256"
        }
      ],
      "stateMutability": "view",
      "type": "function"
    },
    {
      "inputs": [
        {
          "internalType": "uint256",
          "name": "tokenId",
          "type": "uint256"
        }
      ],
      "name": "tokenSpace",
      "outputs": [
        {
          "internalType": "uint256",
          "name": "",
          "type": "uint256"
        }
      ],
      "stateMutability": "view",
      "type": "function"
    },
    {
      "inputs": [
        {
          "internalType": "uint256",
          "name": "",
          "type": "uint256"
        }
      ],
      "name": "tokenSpaces",
      "outputs": [
        {
          "internalType": "uint256",
          "name": "",
          "type": "uint256"
        }
      ],
      "stateMutability": "view",
      "type": "function"
    },
    {
      "inputs": [
        {
          "internalType": "uint256",
          "name": "tokenId",
          "type": "uint256"
        }
      ],
      "name": "tokenURI",
      "outputs": [
        {
          "internalType": "string",
          "name": "",
          "type": "string"
        }
      ],
      "stateMutability": "view",
      "type": "function"
    },
    {
      "inputs": [
        {
          "internalType": "uint256",
          "name": "",
          "type": "uint256"
        }
      ],
      "name": "tokenXCoordinates",
      "outputs": [
        {
          "internalType": "int256",
          "name": "",
          "type": "int256"
        }
      ],
      "stateMutability": "view",
      "type": "function"
    },
    {
      "inputs": [
        {
          "internalType": "uint256",
          "name": "",
          "type": "uint256"
        }
      ],
      "name": "tokenYCoordinates",
      "outputs": [
        {
          "internalType": "int256",
          "name": "",
          "type": "int256"
        }
      ],
      "stateMutability": "view",
      "type": "function"
    },
    {
      "inputs": [],
      "name": "totalSupply",
      "outputs": [
        {
          "internalType": "uint256",
          "name": "",
          "type": "uint256"
        }
      ],
      "stateMutability": "view",
      "type": "function"
    },
    {
      "inputs": [
        {
          "internalType": "address",
          "name": "from",
          "type": "address"
        },
        {
          "internalType": "address",
          "name": "to",
          "type": "address"
        },
        {
          "internalType": "uint256",
          "name": "tokenId",
          "type": "uint256"
        }
      ],
      "name": "transferFrom",
      "outputs": [],
      "stateMutability": "nonpayable",
      "type": "function"
    },
    {
      "inputs": [
        {
          "internalType": "address",
          "name": "newLandOperatorAddr",
          "type": "address"
        }
      ],
      "name": "updateLandOperatorAddress",
      "outputs": [],
      "stateMutability": "nonpayable",
      "type": "function"
    },
    {
      "inputs": [
        {
          "internalType": "uint256",
          "name": "tokenId",
          "type": "uint256"
        },
        {
          "internalType": "string",
          "name": "metadataURI",
          "type": "string"
        }
      ],
      "name": "updateTokenMetadataURI",
      "outputs": [],
      "stateMutability": "nonpayable",
      "type": "function"
    },
    {
      "inputs": [
        {
          "internalType": "uint256",
          "name": "tokenId",
          "type": "uint256"
        },
        {
          "internalType": "uint256",
          "name": "spaceTokenId",
          "type": "uint256"
        }
      ],
      "name": "updateTokenSpace",
      "outputs": [],
      "stateMutability": "nonpayable",
      "type": "function"
    },
    {
      "inputs": [
        {
          "internalType": "uint256",
          "name": "tokenId",
          "type": "uint256"
        },
        {
          "internalType": "string",
          "name": "tokenURI",
          "type": "string"
        }
      ],
      "name": "updateTokenURI",
      "outputs": [],
      "stateMutability": "nonpayable",
      "type": "function"
    }
  ],
  "bytecode": "0x6080604052620f4240600e553480156200001857600080fd5b50604051620046fc380380620046fc8339810160408190526200003b916200025d565b604080518082018252600a815269135bdd1a59881310539160b21b602080830191909152825180840190935260048352631310539160e21b9083015290620000936301ffc9a760e01b6001600160e01b036200015d16565b8151620000a8906006906020850190620001b8565b508051620000be906007906020840190620001b8565b50620000da6380ac58cd60e01b6001600160e01b036200015d16565b620000f563780e9d6360e01b6001600160e01b036200015d16565b50506001600a55600b80546001600160a01b038086166001600160a01b031992831617909255600c8054858416908316179055600d805492841692909116919091179055620001546364825ce360e11b6001600160e01b036200015d16565b50505062000300565b6001600160e01b03198082161415620001935760405162461bcd60e51b81526004016200018a90620002b0565b60405180910390fd5b6001600160e01b0319166000908152602081905260409020805460ff19166001179055565b828054600181600116156101000203166002900490600052602060002090601f016020900481019282601f10620001fb57805160ff19168380011785556200022b565b828001600101855582156200022b579182015b828111156200022b5782518255916020019190600101906200020e565b50620002399291506200023d565b5090565b6200025a91905b8082111562000239576000815560010162000244565b90565b60008060006060848603121562000272578283fd5b83516200027f81620002e7565b60208501519093506200029281620002e7565b6040850151909250620002a581620002e7565b809150509250925092565b6020808252601c908201527f4552433136353a20696e76616c696420696e7465726661636520696400000000604082015260600190565b6001600160a01b0381168114620002fd57600080fd5b50565b6143ec80620003106000396000f3fe608060405234801561001057600080fd5b50600436106103205760003560e01c80636352211e116101a7578063b320f459116100ee578063d5abeb0111610097578063ea7f931211610071578063ea7f931214610671578063fad3219714610679578063fb89c8721461068c57610320565b8063d5abeb0114610643578063e0fd045f1461064b578063e985e9c51461065e57610320565b8063c20bfc93116100c8578063c20bfc931461060a578063c40aaa031461061d578063c87b56dd1461063057610320565b8063b320f459146105d1578063b88d4fde146105e4578063ba339399146105f757610320565b80637f5a184c11610150578063a22cb4651161012a578063a22cb46514610598578063b1e130fc146105ab578063b254dff6146105be57610320565b80637f5a184c1461057557806395d89b411461057d5780639d8e72601461058557610320565b806370a082311161018157806370a082311461054757806373250c131461055a57806375682e791461056257610320565b80636352211e146105195780636935fb3c1461052c5780636c0360eb1461053f57610320565b806323b872dd1161026b57806332f44aa9116102145780634f6ccce7116101ee5780634f6ccce7146104e05780635bf62422146104f357806362f24b701461050657610320565b806332f44aa9146104a757806342842e0e146104ba57806342966c68146104cd57610320565b80632f745c59116102455780632f745c591461046e578063309cf8d21461048157806332528bb61461049457610320565b806323b872dd1461043557806325f385901461044857806328220f351461045b57610320565b806311e5bd1d116102cd57806318e97fd1116102a757806318e97fd1146103fc578063192233d61461040f57806322c77a361461042257610320565b806311e5bd1d146103cb578063157c3df9146103e157806318160ddd146103f457610320565b8063081812fc116102fe578063081812fc14610383578063095ea7b3146103a35780630ff0abb6146103b857610320565b806301ddc3b51461032557806301ffc9a71461034e57806306fdde031461036e575b600080fd5b610338610333366004613270565b6106ad565b60405161034591906135e4565b60405180910390f35b61036161035c3660046131f4565b6106bf565b60405161034591906135d9565b6103766106f6565b60405161034591906135fb565b610396610391366004613270565b61078d565b60405161034591906134e9565b6103b66103b13660046130fd565b6107d9565b005b6103b66103c6366004613127565b610871565b6103d36108e8565b6040516103459291906135ab565b6103766103ef366004613270565b6109f7565b610338610ac2565b6103b661040a3660046132ab565b610ad3565b6103b661041d366004613270565b610c32565b6103b6610430366004612fcf565b610d7b565b6103b661044336600461301e565b610e17565b610338610456366004613270565b610e4f565b6103b6610469366004613270565b610e8e565b61033861047c3660046130fd565b610f4a565b61036161048f366004613288565b610f7b565b6103386104a2366004613270565b61101e565b6103b66104b5366004613288565b611030565b6103b66104c836600461301e565b6110b6565b6103b66104db366004613270565b6110d1565b6103386104ee366004613270565b6111a3565b6103b6610501366004613377565b6111bf565b6103b6610514366004613320565b61128f565b610396610527366004613270565b611367565b61033861053a366004613270565b611395565b6103766113a7565b610338610555366004612fcf565b611408565b610396611451565b6103b66105703660046132ab565b611460565b6103966115a9565b6103766115b8565b610396610593366004613270565b611619565b6103b66105a63660046130c6565b611634565b6103b66105b9366004613270565b611702565b6103b66105cc36600461322c565b611776565b6103b66105df366004613270565b6117b2565b6103b66105f236600461305e565b611889565b6103b6610605366004613377565b6118c8565b610338610618366004613270565b611963565b6103b661062b366004613404565b611975565b61037661063e366004613270565b611aac565b610338611b7a565b610396610659366004613270565b611b80565b61036161066c366004612fea565b611b9b565b610396611bc9565b610338610687366004613270565b611bd8565b61069f61069a366004613270565b611bea565b6040516103459291906135ed565b60136020526000908152604090205481565b7fffffffff000000000000000000000000000000000000000000000000000000001660009081526020819052604090205460ff1690565b60068054604080516020601f60026000196101006001881615020190951694909404938401819004810282018101909252828152606093909290918301828280156107825780601f1061075757610100808354040283529160200191610782565b820191906000526020600020905b81548152906001019060200180831161076557829003601f168201915b505050505090505b90565b600061079882611c38565b6107bd5760405162461bcd60e51b81526004016107b490613d71565b60405180910390fd5b506000908152600460205260409020546001600160a01b031690565b60006107e482611367565b9050806001600160a01b0316836001600160a01b031614156108185760405162461bcd60e51b81526004016107b490613fda565b806001600160a01b031661082a611c4b565b6001600160a01b0316148061084657506108468161066c611c4b565b6108625760405162461bcd60e51b81526004016107b490613bac565b61086c8383611c4f565b505050565b6002600a5414156108945760405162461bcd60e51b81526004016107b490614185565b6002600a5560005b82518110156108de576108d6338483815181106108b557fe5b60200260200101518484815181106108c957fe5b6020026020010151611cbd565b60010161089c565b50506001600a5550565b60608060006108f76019611f87565b905060608167ffffffffffffffff8111801561091257600080fd5b5060405190808252806020026020018201604052801561093c578160200160208202803683370190505b50905060608267ffffffffffffffff8111801561095857600080fd5b50604051908082528060200260200182016040528015610982578160200160208202803683370190505b50905060005b838110156109ec5760008181526016602052604090205483518490839081106109ad57fe5b60200260200101818152505060176000828152602001908152602001600020548282815181106109d957fe5b6020908102919091010152600101610988565b509093509150509091565b60608180610a056019611f87565b11610a225760405162461bcd60e51b81526004016107b490613e09565b60008381526014602090815260409182902080548351601f600260001961010060018616150201909316929092049182018490048402810184019094528084529091830182828015610ab55780601f10610a8a57610100808354040283529160200191610ab5565b820191906000526020600020905b815481529060010190602001808311610a9857829003601f168201915b5050505050915050919050565b6000610ace6002611f8b565b905090565b6002600a541415610af65760405162461bcd60e51b81526004016107b490614185565b6002600a553383610b078282611f96565b610b235760405162461bcd60e51b81526004016107b4906136ad565b6000858152601260205260409020548590610b505760405162461bcd60e51b81526004016107b490613ec3565b84848080601f01602080910402602001604051908101604052809392919081815260200183838082843760009201919091525050825115159150610ba890505760405162461bcd60e51b81526004016107b490613949565b610be88787878080601f01602080910402602001604051908101604052809392919081815260200183838082843760009201919091525061201b92505050565b867f702fe2dc2dc0f68023540aa4a1e11811c0f29112f6ebf01e61b90538e4f29810338888604051610c1c93929190613553565b60405180910390a250506001600a555050505050565b6002600a541415610c555760405162461bcd60e51b81526004016107b490614185565b6002600a553381610c668282611f96565b610c825760405162461bcd60e51b81526004016107b4906136ad565b600c546040516381de64e760e01b8152339185916000916001600160a01b0316906381de64e790610cb990859087906004016141f3565b60206040518083038186803b158015610cd157600080fd5b505afa158015610ce5573d6000803e3d6000fd5b505050506040513d601f19601f82011682018060405250810190610d0991906131d8565b9050600181151514610d2d5760405162461bcd60e51b81526004016107b4906140f1565b610d368661205f565b857fb40b37a7523e5afdad9d285a2329c984d53af3eb0220de8b6a0de8b9d32a475333604051610d6691906134e9565b60405180910390a250506001600a5550505050565b6002600a541415610d9e5760405162461bcd60e51b81526004016107b490614185565b6002600a55600d546001600160a01b03163314610dcd5760405162461bcd60e51b81526004016107b490613832565b610dd681612097565b7faba44e8a7e7bbd8d6bab719239f02726e03df43bb2a21859fb4cf8c71488a31e3382604051610e079291906134fd565b60405180910390a1506001600a55565b610e28610e22611c4b565b82611f96565b610e445760405162461bcd60e51b81526004016107b490614094565b61086c8383836120b9565b60008180610e5d6019611f87565b11610e7a5760405162461bcd60e51b81526004016107b490613e09565b505060009081526018602052604090205490565b6002600a541415610eb15760405162461bcd60e51b81526004016107b490614185565b6002600a553381610ec28282611f96565b610ede5760405162461bcd60e51b81526004016107b4906136ad565b600b546040516328220f3560e01b81526001600160a01b03909116906328220f3590610f0e9086906004016135e4565b600060405180830381600087803b158015610f2857600080fd5b505af1158015610f3c573d6000803e3d6000fd5b50506001600a555050505050565b6001600160a01b0382166000908152600160205260408120610f72908363ffffffff61212616565b90505b92915050565b60008280610f896019611f87565b11610fa65760405162461bcd60e51b81526004016107b490613e09565b600084815260186020526040902054849015610fd45760405162461bcd60e51b81526004016107b490613d3a565b6000610fdf86611367565b9050846001600160a01b0316816001600160a01b0316146110125760405162461bcd60e51b81526004016107b4906137d5565b50600195945050505050565b60166020526000908152604090205481565b600b546001600160a01b0316331461105a5760405162461bcd60e51b81526004016107b490613a97565b61106382611367565b6000838152600f6020526040902080546001600160a01b0319166001600160a01b03929092169190911790556110b261109b83611367565b828460405180602001604052806000815250612132565b5050565b61086c83838360405180602001604052806000815250611889565b6002600a5414156110f45760405162461bcd60e51b81526004016107b490614185565b6002600a558061110381611c38565b61111f5760405162461bcd60e51b81526004016107b4906141bc565b338261112b8282611f96565b6111475760405162461bcd60e51b81526004016107b4906136ad565b600061115285611367565b6000868152601060205260409020549091506001600160a01b0380831691161461118e5760405162461bcd60e51b81526004016107b490614037565b61119785612165565b50506001600a55505050565b6000806111b760028463ffffffff61225116565b509392505050565b6002600a5414156111e25760405162461bcd60e51b81526004016107b490614185565b6002600a55816111f181611c38565b61120d5760405162461bcd60e51b81526004016107b4906141bc565b81604001516001600160a01b0316336001600160a01b0316146112425760405162461bcd60e51b81526004016107b49061388f565b600b546040517fbdb586980000000000000000000000000000000000000000000000000000000081526001600160a01b039091169063bdb5869890610f0e9086908690339060040161426c565b6002600a5414156112b25760405162461bcd60e51b81526004016107b490614185565b6002600a5533826112c38282611f96565b6112df5760405162461bcd60e51b81526004016107b4906136ad565b600b546040517f62f24b700000000000000000000000000000000000000000000000000000000081526001600160a01b03909116906362f24b709061132a908790879060040161420a565b600060405180830381600087803b15801561134457600080fd5b505af1158015611358573d6000803e3d6000fd5b50506001600a55505050505050565b6000610f758260405180606001604052806029815260200161438e602991396002919063ffffffff61226d16565b60176020526000908152604090205481565b60098054604080516020601f60026000196101006001881615020190951694909404938401819004810282018101909252828152606093909290918301828280156107825780601f1061075757610100808354040283529160200191610782565b60006001600160a01b0382166114305760405162461bcd60e51b81526004016107b490613c09565b6001600160a01b0382166000908152600160205260409020610f7590611f8b565b600c546001600160a01b031681565b6002600a5414156114835760405162461bcd60e51b81526004016107b490614185565b6002600a5533836114948282611f96565b6114b05760405162461bcd60e51b81526004016107b4906136ad565b60008581526013602052604090205485906114dd5760405162461bcd60e51b81526004016107b490613b4f565b84848080601f0160208091040260200160405190810160405280939291908181526020018383808284376000920191909152505082511515915061153590505760405162461bcd60e51b81526004016107b490613949565b6115758787878080601f01602080910402602001604051908101604052809392919081815260200183838082843760009201919091525061228492505050565b867fe3df41127db820c79e5b8d541a63e40e3e97b9af96f7a50bded13091b70df9ae338888604051610c1c93929190613553565b600d546001600160a01b031681565b60078054604080516020601f60026000196101006001881615020190951694909404938401819004810282018101909252828152606093909290918301828280156107825780601f1061075757610100808354040283529160200191610782565b600f602052600090815260409020546001600160a01b031681565b61163c611c4b565b6001600160a01b0316826001600160a01b0316141561166d5760405162461bcd60e51b81526004016107b490613a03565b806005600061167a611c4b565b6001600160a01b03908116825260208083019390935260409182016000908120918716808252919093529120805460ff1916921515929092179091556116be611c4b565b6001600160a01b03167f17307eab39ab6107e8899845ad3d59bd9653f200f220920489ca2b5937696c31836040516116f691906135d9565b60405180910390a35050565b6002600a5414156117255760405162461bcd60e51b81526004016107b490614185565b6002600a556117338161078d565b6001600160a01b0316336001600160a01b0316146117635760405162461bcd60e51b81526004016107b490613650565b61176e600082611c4f565b506001600a55565b6002600a5414156117995760405162461bcd60e51b81526004016107b490614185565b6002600a556117a9338383611cbd565b50506001600a55565b6002600a5414156117d55760405162461bcd60e51b81526004016107b490614185565b6002600a5580806117e66019611f87565b116118035760405162461bcd60e51b81526004016107b490613e09565b600b546040517f776a08350000000000000000000000000000000000000000000000000000000081526001600160a01b039091169063776a08359061184e90859033906004016141f3565b600060405180830381600087803b15801561186857600080fd5b505af115801561187c573d6000803e3d6000fd5b50506001600a5550505050565b61189a611894611c4b565b83611f96565b6118b65760405162461bcd60e51b81526004016107b490614094565b6118c284848484612132565b50505050565b6002600a5414156118eb5760405162461bcd60e51b81526004016107b490614185565b6002600a5533826118fc8282611f96565b6119185760405162461bcd60e51b81526004016107b4906136ad565b600b546040517fba3393990000000000000000000000000000000000000000000000000000000081526001600160a01b039091169063ba3393999061132a9087908790600401614258565b60186020526000908152604090205481565b6002600a5414156119985760405162461bcd60e51b81526004016107b490614185565b6002600a5533826119a98282611f96565b6119c55760405162461bcd60e51b81526004016107b4906136ad565b600c546040516381de64e760e01b8152339185916000916001600160a01b0316906381de64e7906119fc90859087906004016141f3565b60206040518083038186803b158015611a1457600080fd5b505afa158015611a28573d6000803e3d6000fd5b505050506040513d601f19601f82011682018060405250810190611a4c91906131d8565b9050600181151514611a705760405162461bcd60e51b81526004016107b4906140f1565b611a7a87876122c9565b867f7498a08f72fdf18e29a557188c5411e8df33eee6cf61ab71f41e73c3f5f6236b3388604051610c1c929190613592565b60608180611aba6019611f87565b11611ad75760405162461bcd60e51b81526004016107b490613e09565b60008381526008602090815260409182902080548351601f6002600019610100600186161502019093169290920491820184900484028101840190945280845260609392830182828015611b6c5780601f10611b4157610100808354040283529160200191611b6c565b820191906000526020600020905b815481529060010190602001808311611b4f57829003601f168201915b509398975050505050505050565b600e5481565b6010602052600090815260409020546001600160a01b031681565b6001600160a01b03918216600090815260056020908152604080832093909416825291909152205460ff1690565b600b546001600160a01b031681565b60126020526000908152604090205481565b6000808280611bf96019611f87565b11611c165760405162461bcd60e51b81526004016107b490613e09565b5050506000908152601660209081526040808320546017909252909120549091565b6000610f7560028363ffffffff61230216565b3390565b600081815260046020526040902080546001600160a01b0319166001600160a01b0384169081179091558190611c8482611367565b6001600160a01b03167f8c5be1e5ebec7d5bd14f71427d1e84f3dd0314c0f7b2291e5b200ac8c7c3b92560405160405180910390a45050565b81518051611cdd5760405162461bcd60e51b81526004016107b490613949565b60208301518051611d005760405162461bcd60e51b81526004016107b490613949565b600e54611d0b610ac2565b10611d285760405162461bcd60e51b81526004016107b490613b18565b600d546001600160a01b03163314611d525760405162461bcd60e51b81526004016107b490613741565b8360800151606319128015611d6b575060648460800151125b8015611d7c57508360a00151606319125b8015611d8c575060648460a00151125b611da85760405162461bcd60e51b81526004016107b4906138ec565b6040840151611dc95760405162461bcd60e51b81526004016107b490613c66565b60408085015160009081526015602052205460ff1615611dfb5760405162461bcd60e51b81526004016107b490613f7d565b6060840151611e1c5760405162461bcd60e51b81526004016107b490613f20565b6000611e286019611f87565b9050611e34868261230e565b611e3e6019612328565b611e4c818660400151612331565b611e5a81866060015161236a565b611e68818660200151612284565b611e7681866000015161201b565b611e898186608001518760a001516123a3565b6001600160a01b0386166000908152601160205260409020611eb1908263ffffffff6123e816565b50604080860151600090815260156020908152828220805460ff191660011790558382526010815282822080546001600160a01b03808c166001600160a01b03199283168117909355600f90935292849020805490931617909155600b5491517feb55683a00000000000000000000000000000000000000000000000000000000815291169063eb55683a90611f4d908490889060040161422e565b600060405180830381600087803b158015611f6757600080fd5b505af1158015611f7b573d6000803e3d6000fd5b50505050505050505050565b5490565b6000610f7582611f87565b6000611fa182611c38565b611fbd5760405162461bcd60e51b81526004016107b490613acc565b6000611fc883611367565b9050806001600160a01b0316846001600160a01b031614806120035750836001600160a01b0316611ff88461078d565b6001600160a01b0316145b8061201357506120138185611b9b565b949350505050565b61202482611c38565b6120405760405162461bcd60e51b81526004016107b490613dbd565b6000828152600860209081526040909120825161086c92840190612ce7565b8061206981611c38565b6120855760405162461bcd60e51b81526004016107b4906141bc565b50600090815260186020526040812055565b600d80546001600160a01b0319166001600160a01b0392909216919091179055565b600b546040516328220f3560e01b81526001600160a01b03909116906328220f35906120e99084906004016135e4565b600060405180830381600087803b15801561210357600080fd5b505af1158015612117573d6000803e3d6000fd5b5050505061086c8383836123f4565b6000610f728383612514565b61213d8484846120b9565b61214984848484612559565b6118c25760405162461bcd60e51b81526004016107b4906136e4565b60008181526008602090815260409182902080548351601f60026000196101006001861615020190931692909204918201849004840281018401909452808452606093928301828280156121fa5780601f106121cf576101008083540402835291602001916121fa565b820191906000526020600020905b8154815290600101906020018083116121dd57829003601f168201915b5050505050905061220a82612680565b805115612232576000828152600860209081526040909120825161223092840190612ce7565b505b506000908152600f6020526040902080546001600160a01b0319169055565b60008080806122608686612759565b9097909650945050505050565b600061227a8484846127b5565b90505b9392505050565b8161228e81611c38565b6122aa5760405162461bcd60e51b81526004016107b4906141bc565b600083815260146020908152604090912083516118c292850190612ce7565b816122d381611c38565b6122ef5760405162461bcd60e51b81526004016107b4906141bc565b5060009182526018602052604090912055565b6000610f728383612814565b6110b282826040518060200160405280600081525061282c565b80546001019055565b8161233b81611c38565b6123575760405162461bcd60e51b81526004016107b4906141bc565b5060009182526012602052604090912055565b8161237481611c38565b6123905760405162461bcd60e51b81526004016107b4906141bc565b5060009182526013602052604090912055565b826123ad81611c38565b6123c95760405162461bcd60e51b81526004016107b4906141bc565b5060009283526016602090815260408085209390935560179052912055565b6000610f72838361285f565b826001600160a01b031661240782611367565b6001600160a01b03161461242d5760405162461bcd60e51b81526004016107b490613e66565b6001600160a01b0382166124535760405162461bcd60e51b81526004016107b4906139a6565b61245e83838361086c565b612469600082611c4f565b6001600160a01b0383166000908152600160205260409020612491908263ffffffff6128a916565b506001600160a01b03821660009081526001602052604090206124ba908263ffffffff6123e816565b506124cd6002828463ffffffff6128b516565b5080826001600160a01b0316846001600160a01b03167fddf252ad1be2c89b69c2b068fc378daa952ba7f163c4a11628f55a4df523b3ef60405160405180910390a4505050565b815460009082106125375760405162461bcd60e51b81526004016107b49061360e565b82600001828154811061254657fe5b9060005260206000200154905092915050565b600061256d846001600160a01b03166128cb565b61257957506001612013565b6060612631630a85bd0160e11b61258e611c4b565b8887876040516024016125a49493929190613517565b604051602081830303815290604052907bffffffffffffffffffffffffffffffffffffffffffffffffffffffff19166020820180517bffffffffffffffffffffffffffffffffffffffffffffffffffffffff838183161783525050505060405180606001604052806032815260200161435c603291396001600160a01b038816919063ffffffff6128d116565b90506000818060200190518101906126499190613210565b7fffffffff0000000000000000000000000000000000000000000000000000000016630a85bd0160e11b1492505050949350505050565b600061268b82611367565b90506126998160008461086c565b6126a4600083611c4f565b60008281526008602052604090205460026000196101006001841615020190911604156126e25760008281526008602052604081206126e291612d65565b6001600160a01b038116600090815260016020526040902061270a908363ffffffff6128a916565b5061271c60028363ffffffff6128e016565b5060405182906000906001600160a01b038416907fddf252ad1be2c89b69c2b068fc378daa952ba7f163c4a11628f55a4df523b3ef908390a45050565b81546000908190831061277e5760405162461bcd60e51b81526004016107b490613cc3565b600084600001848154811061278f57fe5b906000526020600020906002020190508060000154816001015492509250509250929050565b600082815260018401602052604081205482816127e55760405162461bcd60e51b81526004016107b491906135fb565b508460000160018203815481106127f857fe5b9060005260206000209060020201600101549150509392505050565b60009081526001919091016020526040902054151590565b61283683836128ec565b6128436000848484612559565b61086c5760405162461bcd60e51b81526004016107b4906136e4565b600061286b8383612814565b6128a157508154600181810184556000848152602080822090930184905584548482528286019093526040902091909155610f75565b506000610f75565b6000610f7283836129bc565b600061227a84846001600160a01b038516612a82565b3b151590565b606061227a8484600085612b19565b6000610f728383612bda565b6001600160a01b0382166129125760405162461bcd60e51b81526004016107b490613d05565b61291b81611c38565b156129385760405162461bcd60e51b81526004016107b49061379e565b6129446000838361086c565b6001600160a01b038216600090815260016020526040902061296c908263ffffffff6123e816565b5061297f6002828463ffffffff6128b516565b5060405181906001600160a01b038416906000907fddf252ad1be2c89b69c2b068fc378daa952ba7f163c4a11628f55a4df523b3ef908290a45050565b60008181526001830160205260408120548015612a7857835460001980830191908101906000908790839081106129ef57fe5b9060005260206000200154905080876000018481548110612a0c57fe5b600091825260208083209091019290925582815260018981019092526040902090840190558654879080612a3c57fe5b60019003818190600052602060002001600090559055866001016000878152602001908152602001600020600090556001945050505050610f75565b6000915050610f75565b600082815260018401602052604081205480612ae757505060408051808201825283815260208082018481528654600181810189556000898152848120955160029093029095019182559151908201558654868452818801909252929091205561227d565b82856000016001830381548110612afa57fe5b906000526020600020906002020160010181905550600091505061227d565b606082471015612b3b5760405162461bcd60e51b81526004016107b490613a3a565b612b44856128cb565b612b605760405162461bcd60e51b81526004016107b49061414e565b60006060866001600160a01b03168587604051612b7d91906134cd565b60006040518083038185875af1925050503d8060008114612bba576040519150601f19603f3d011682016040523d82523d6000602084013e612bbf565b606091505b5091509150612bcf828286612cae565b979650505050505050565b60008181526001830160205260408120548015612a785783546000198083019190810190600090879083908110612c0d57fe5b9060005260206000209060020201905080876000018481548110612c2d57fe5b600091825260208083208454600290930201918255600193840154918401919091558354825289830190526040902090840190558654879080612c6c57fe5b6000828152602080822060026000199094019384020182815560019081018390559290935588815289820190925260408220919091559450610f759350505050565b60608315612cbd57508161227d565b825115612ccd5782518084602001fd5b8160405162461bcd60e51b81526004016107b491906135fb565b828054600181600116156101000203166002900490600052602060002090601f016020900481019282601f10612d2857805160ff1916838001178555612d55565b82800160010185558215612d55579182015b82811115612d55578251825591602001919060010190612d3a565b50612d61929150612dac565b5090565b50805460018160011615610100020316600290046000825580601f10612d8b5750612da9565b601f016020900490600052602060002090810190612da99190612dac565b50565b61078a91905b80821115612d615760008155600101612db2565b80356001600160a01b0381168114610f7557600080fd5b600082601f830112612ded578081fd5b8135612e00612dfb826142be565b614297565b8181529150602080830190848101606080850287018301881015612e2357600080fd5b60005b85811015612e4a57612e388984612ebf565b85529383019391810191600101612e26565b50505050505092915050565b600082601f830112612e66578081fd5b813567ffffffffffffffff811115612e7c578182fd5b612e8f601f8201601f1916602001614297565b9150808252836020828501011115612ea657600080fd5b8060208401602084013760009082016020015292915050565b600060608284031215612ed0578081fd5b612eda6060614297565b9050612ee68383612f12565b8152612ef58360208401612f12565b6020820152612f078360408401612f12565b604082015292915050565b600060208284031215612f23578081fd5b612f2d6020614297565b9135825250919050565b600060c08284031215612f48578081fd5b612f5260c0614297565b9050813567ffffffffffffffff80821115612f6c57600080fd5b612f7885838601612e56565b83526020840135915080821115612f8e57600080fd5b50612f9b84828501612e56565b60208301525060408201356040820152606082013560608201526080820135608082015260a082013560a082015292915050565b600060208284031215612fe0578081fd5b610f728383612dc6565b60008060408385031215612ffc578081fd5b6130068484612dc6565b91506130158460208501612dc6565b90509250929050565b600080600060608486031215613032578081fd5b833561303d8161430a565b9250602084013561304d8161430a565b929592945050506040919091013590565b60008060008060808587031215613073578081fd5b61307d8686612dc6565b935061308c8660208701612dc6565b925060408501359150606085013567ffffffffffffffff8111156130ae578182fd5b6130ba87828801612e56565b91505092959194509250565b600080604083850312156130d8578182fd5b6130e28484612dc6565b915060208301356130f28161431f565b809150509250929050565b6000806040838503121561310f578182fd5b6131198484612dc6565b946020939093013593505050565b60008060408385031215613139578182fd5b823567ffffffffffffffff80821115613150578384fd5b81850186601f820112613161578485fd5b80359250613171612dfb846142be565b83815260208082019190838101885b878110156131a9576131978c848435890101612f37565b85529382019390820190600101613180565b509197508801359450505050808211156131c1578283fd5b506131ce85828601612ddd565b9150509250929050565b6000602082840312156131e9578081fd5b815161227d8161431f565b600060208284031215613205578081fd5b813561227d8161432d565b600060208284031215613221578081fd5b815161227d8161432d565b6000806080838503121561323e578182fd5b823567ffffffffffffffff811115613254578283fd5b61326085828601612f37565b9250506130158460208501612ebf565b600060208284031215613281578081fd5b5035919050565b6000806040838503121561329a578182fd5b823591506130158460208501612dc6565b6000806000604084860312156132bf578081fd5b83359250602084013567ffffffffffffffff808211156132dd578283fd5b81860187601f8201126132ee578384fd5b80359250818311156132fe578384fd5b87602084830101111561330f578384fd5b949760209095019650909450505050565b6000808284036060811215613333578283fd5b833592506040601f1982011215613348578182fd5b506133536040614297565b602084013581526133678560408601612dc6565b6020820152809150509250929050565b60008082840360c081121561338a578283fd5b8335925060a0601f198201121561339f578182fd5b506133aa60a0614297565b602084013581526133be8560408601612dc6565b60208201526133d08560608601612dc6565b60408201526133e28560808601612dc6565b60608201526133f48560a08601612f12565b6080820152809150509250929050565b60008060408385031215613416578182fd5b50508035926020909101359150565b6000815180845260208085019450808401835b8381101561345457815187529582019590820190600101613438565b509495945050505050565b600081518084526134778160208601602086016142de565b601f01601f19169290920160200192915050565b8051825260208101516001600160a01b038082166020850152806040840151166040850152806060840151166060850152505060808101515160808301525050565b600082516134df8184602087016142de565b9190910192915050565b6001600160a01b0391909116815260200190565b6001600160a01b0392831681529116602082015260400190565b60006001600160a01b03808716835280861660208401525083604083015260806060830152613549608083018461345f565b9695505050505050565b60006001600160a01b03851682526040602083015282604083015282846060840137818301606090810191909152601f909201601f1916010192915050565b6001600160a01b03929092168252602082015260400190565b6000604082526135be6040830185613425565b82810360208401526135d08185613425565b95945050505050565b901515815260200190565b90815260200190565b918252602082015260400190565b600060208252610f72602083018461345f565b60208082526022908201527f456e756d657261626c655365743a20696e646578206f7574206f6620626f756e604082015261647360f01b606082015260800190565b60208082526021908201527f4c616e643a2063616c6c6572206e6f7420617070726f7665642061646472657360408201527f7300000000000000000000000000000000000000000000000000000000000000606082015260800190565b6020808252601c908201527f4c616e643a204f6e6c7920617070726f766564206f72206f776e657200000000604082015260600190565b60208082526032908201527f4552433732313a207472616e7366657220746f206e6f6e20455243373231526560408201527f63656976657220696d706c656d656e7465720000000000000000000000000000606082015260800190565b60208082526021908201527f4c616e643a206f6e6c79206c616e64206f70657261746f722063616e206d696e60408201527f7400000000000000000000000000000000000000000000000000000000000000606082015260800190565b6020808252601c908201527f4552433732313a20746f6b656e20616c7265616479206d696e74656400000000604082015260600190565b6020808252602e908201527f53706163653a206f776e6572206f66207370616365206973206e6f742074686560408201527f206f776e6572206f66206c616e64000000000000000000000000000000000000606082015260800190565b6020808252602b908201527f4c616e643a206f6e6c792063757272656e74206c616e64206f70657261746f7260408201527f2063616e20757064617465000000000000000000000000000000000000000000606082015260800190565b60208082526027908201527f4c616e6445786368616e67653a20426964646572206d757374206265206d736760408201527f2073656e64657200000000000000000000000000000000000000000000000000606082015260800190565b60208082526029908201527f4c616e643a20636f6f7264696e617465732073686f756c6420626520696e736960408201527f646520626f756e64730000000000000000000000000000000000000000000000606082015260800190565b60208082526025908201527f4c616e643a2073706563696669656420757269206d757374206265206e6f6e2d60408201527f656d707479000000000000000000000000000000000000000000000000000000606082015260800190565b60208082526024908201527f4552433732313a207472616e7366657220746f20746865207a65726f2061646460408201527f7265737300000000000000000000000000000000000000000000000000000000606082015260800190565b60208082526019908201527f4552433732313a20617070726f766520746f2063616c6c657200000000000000604082015260600190565b60208082526026908201527f416464726573733a20696e73756666696369656e742062616c616e636520666f60408201527f722063616c6c0000000000000000000000000000000000000000000000000000606082015260800190565b6020808252818101527f4c616e643a206f6e6c79206c616e6445786368616e676520636f6e7472616374604082015260600190565b6020808252602c908201527f4552433732313a206f70657261746f7220717565727920666f72206e6f6e657860408201526b34b9ba32b73a103a37b5b2b760a11b606082015260800190565b60208082526015908201527f4c616e643a20737570706c79206465706c657465640000000000000000000000604082015260600190565b6020808252602e908201527f4c616e643a20746f6b656e20646f6573206e6f7420686176652068617368206f60408201527f6620697473206d65746164617461000000000000000000000000000000000000606082015260800190565b60208082526038908201527f4552433732313a20617070726f76652063616c6c6572206973206e6f74206f7760408201527f6e6572206e6f7220617070726f76656420666f7220616c6c0000000000000000606082015260800190565b6020808252602a908201527f4552433732313a2062616c616e636520717565727920666f7220746865207a6560408201527f726f206164647265737300000000000000000000000000000000000000000000606082015260800190565b60208082526023908201527f4c616e643a20636f6e74656e742068617368206d757374206265206e6f6e2d7a60408201527f65726f0000000000000000000000000000000000000000000000000000000000606082015260800190565b60208082526022908201527f456e756d657261626c654d61703a20696e646578206f7574206f6620626f756e604082015261647360f01b606082015260800190565b6020808252818101527f4552433732313a206d696e7420746f20746865207a65726f2061646472657373604082015260600190565b6020808252601a908201527f4c616e643a206c616e642073686f756c6420626520656d707479000000000000604082015260600190565b6020808252602c908201527f4552433732313a20617070726f76656420717565727920666f72206e6f6e657860408201526b34b9ba32b73a103a37b5b2b760a11b606082015260800190565b6020808252602c908201527f4552433732314d657461646174613a2055524920736574206f66206e6f6e657860408201526b34b9ba32b73a103a37b5b2b760a11b606082015260800190565b60208082526027908201527f4c616e643a20746f6b656e2077697468207468617420696420646f6573206e6f60408201527f7420657869737400000000000000000000000000000000000000000000000000606082015260800190565b60208082526029908201527f4552433732313a207472616e73666572206f6620746f6b656e2074686174206960408201527f73206e6f74206f776e0000000000000000000000000000000000000000000000606082015260800190565b60208082526031908201527f4c616e643a20746f6b656e20646f6573206e6f7420686176652068617368206f60408201527f66206372656174656420636f6e74656e74000000000000000000000000000000606082015260800190565b60208082526024908201527f4c616e643a206d657461646174612068617368206d757374206265206e6f6e2d60408201527f7a65726f00000000000000000000000000000000000000000000000000000000606082015260800190565b6020808252603d908201527f4c616e643a206120746f6b656e2068617320616c7265616479206265656e206360408201527f7265617465642077697468207468697320636f6e74656e742068617368000000606082015260800190565b60208082526021908201527f4552433732313a20617070726f76616c20746f2063757272656e74206f776e6560408201527f7200000000000000000000000000000000000000000000000000000000000000606082015260800190565b60208082526022908201527f4c616e643a206f776e6572206973206e6f742063726561746f72206f66206c6160408201527f6e64000000000000000000000000000000000000000000000000000000000000606082015260800190565b60208082526031908201527f4552433732313a207472616e736665722063616c6c6572206973206e6f74206f60408201527f776e6572206e6f7220617070726f766564000000000000000000000000000000606082015260800190565b60208082526024908201527f4c616e643a207370616365206973206e6f7420617474616368626c6520746f2060408201527f6c616e6400000000000000000000000000000000000000000000000000000000606082015260800190565b6020808252601d908201527f416464726573733a2063616c6c20746f206e6f6e2d636f6e7472616374000000604082015260600190565b6020808252601f908201527f5265656e7472616e637947756172643a207265656e7472616e742063616c6c00604082015260600190565b60208082526017908201527f4c616e643a206e6f6e6578697374656e7420746f6b656e000000000000000000604082015260600190565b9182526001600160a01b0316602082015260400190565b918252805160208084019190915201516001600160a01b0316604082015260600190565b91825280515160208084019190915281015151604080840191909152015151606082015260800190565b82815260c0810161227d602083018461348b565b83815260e08101614280602083018561348b565b6001600160a01b03831660c0830152949350505050565b60405181810167ffffffffffffffff811182821017156142b657600080fd5b604052919050565b600067ffffffffffffffff8211156142d4578081fd5b5060209081020190565b60005b838110156142f95781810151838201526020016142e1565b838111156118c25750506000910152565b6001600160a01b0381168114612da957600080fd5b8015158114612da957600080fd5b7fffffffff0000000000000000000000000000000000000000000000000000000081168114612da957600080fdfe4552433732313a207472616e7366657220746f206e6f6e20455243373231526563656976657220696d706c656d656e7465724552433732313a206f776e657220717565727920666f72206e6f6e6578697374656e7420746f6b656ea2646970667358221220b69404584d59cef19a687eb9325fdba49f3f8732570e7f2ce9bb97a89f15aa8764736f6c63430006080033",
  "linkReferences": {},
  "deployedLinkReferences": {}
}