{
  "_format": "hh-sol-artifact-1",
  "contractName": "LandListing",
  "sourceName": "contracts/LandListing.sol",
  "abi": [
    {
      "inputs": [
        {
          "internalType": "address",
          "name": "_motif",
          "type": "address"
        },
        {
          "internalType": "address",
          "name": "_wmotif",
          "type": "address"
        }
      ],
      "stateMutability": "nonpayable",
      "type": "constructor"
    },
    {
      "anonymous": false,
      "inputs": [
        {
          "indexed": true,
          "internalType": "uint256",
          "name": "listingId",
          "type": "uint256"
        },
        {
          "indexed": true,
          "internalType": "uint256",
          "name": "tokenId",
          "type": "uint256"
        },
        {
          "indexed": true,
          "internalType": "address",
          "name": "tokenContract",
          "type": "address"
        },
        {
          "indexed": false,
          "internalType": "bool",
          "name": "approved",
          "type": "bool"
        }
      ],
      "name": "ListingApprovalUpdated",
      "type": "event"
    },
    {
      "anonymous": false,
      "inputs": [
        {
          "indexed": true,
          "internalType": "uint256",
          "name": "listingId",
          "type": "uint256"
        },
        {
          "indexed": true,
          "internalType": "uint256",
          "name": "tokenId",
          "type": "uint256"
        },
        {
          "indexed": true,
          "internalType": "address",
          "name": "tokenContract",
          "type": "address"
        },
        {
          "indexed": false,
          "internalType": "address",
          "name": "sender",
          "type": "address"
        },
        {
          "indexed": false,
          "internalType": "uint256",
          "name": "value",
          "type": "uint256"
        },
        {
          "indexed": false,
          "internalType": "bool",
          "name": "firstBid",
          "type": "bool"
        },
        {
          "indexed": false,
          "internalType": "bool",
          "name": "extended",
          "type": "bool"
        }
      ],
      "name": "ListingBid",
      "type": "event"
    },
    {
      "anonymous": false,
      "inputs": [
        {
          "indexed": true,
          "internalType": "uint256",
          "name": "listingId",
          "type": "uint256"
        },
        {
          "indexed": true,
          "internalType": "uint256",
          "name": "tokenId",
          "type": "uint256"
        },
        {
          "indexed": true,
          "internalType": "address",
          "name": "tokenContract",
          "type": "address"
        },
        {
          "indexed": false,
          "internalType": "address",
          "name": "tokenOwner",
          "type": "address"
        }
      ],
      "name": "ListingCanceled",
      "type": "event"
    },
    {
      "anonymous": false,
      "inputs": [
        {
          "indexed": true,
          "internalType": "uint256",
          "name": "listingId",
          "type": "uint256"
        },
        {
          "indexed": true,
          "internalType": "uint256",
          "name": "tokenId",
          "type": "uint256"
        },
        {
          "indexed": true,
          "internalType": "address",
          "name": "tokenContract",
          "type": "address"
        },
        {
          "indexed": false,
          "internalType": "uint256",
          "name": "startsAt",
          "type": "uint256"
        },
        {
          "indexed": false,
          "internalType": "uint256",
          "name": "duration",
          "type": "uint256"
        },
        {
          "indexed": false,
          "internalType": "uint256",
          "name": "listPrice",
          "type": "uint256"
        },
        {
          "indexed": false,
          "internalType": "uint8",
          "name": "listType",
          "type": "uint8"
        },
        {
          "indexed": false,
          "internalType": "address",
          "name": "tokenOwner",
          "type": "address"
        },
        {
          "indexed": false,
          "internalType": "address",
          "name": "intermediary",
          "type": "address"
        },
        {
          "indexed": false,
          "internalType": "uint8",
          "name": "intermediaryFeePercentage",
          "type": "uint8"
        },
        {
          "indexed": false,
          "internalType": "address",
          "name": "listCurrency",
          "type": "address"
        }
      ],
      "name": "ListingCreated",
      "type": "event"
    },
    {
      "anonymous": false,
      "inputs": [
        {
          "indexed": true,
          "internalType": "uint256",
          "name": "listingId",
          "type": "uint256"
        },
        {
          "indexed": true,
          "internalType": "uint256",
          "name": "tokenId",
          "type": "uint256"
        },
        {
          "indexed": true,
          "internalType": "address",
          "name": "tokenContract",
          "type": "address"
        },
        {
          "indexed": false,
          "internalType": "bool",
          "name": "approved",
          "type": "bool"
        },
        {
          "indexed": false,
          "internalType": "uint256",
          "name": "startsAt",
          "type": "uint256"
        }
      ],
      "name": "ListingDropApprovalUpdated",
      "type": "event"
    },
    {
      "anonymous": false,
      "inputs": [
        {
          "indexed": true,
          "internalType": "uint256",
          "name": "listingId",
          "type": "uint256"
        },
        {
          "indexed": true,
          "internalType": "uint256",
          "name": "tokenId",
          "type": "uint256"
        },
        {
          "indexed": true,
          "internalType": "address",
          "name": "tokenContract",
          "type": "address"
        },
        {
          "indexed": false,
          "internalType": "uint256",
          "name": "duration",
          "type": "uint256"
        }
      ],
      "name": "ListingDurationExtended",
      "type": "event"
    },
    {
      "anonymous": false,
      "inputs": [
        {
          "indexed": true,
          "internalType": "uint256",
          "name": "listingId",
          "type": "uint256"
        },
        {
          "indexed": true,
          "internalType": "uint256",
          "name": "tokenId",
          "type": "uint256"
        },
        {
          "indexed": true,
          "internalType": "address",
          "name": "tokenContract",
          "type": "address"
        },
        {
          "indexed": false,
          "internalType": "address",
          "name": "tokenOwner",
          "type": "address"
        },
        {
          "indexed": false,
          "internalType": "address",
          "name": "intermediary",
          "type": "address"
        },
        {
          "indexed": false,
          "internalType": "address",
          "name": "winner",
          "type": "address"
        },
        {
          "indexed": false,
          "internalType": "uint256",
          "name": "amount",
          "type": "uint256"
        },
        {
          "indexed": false,
          "internalType": "uint256",
          "name": "intermediaryFee",
          "type": "uint256"
        },
        {
          "indexed": false,
          "internalType": "address",
          "name": "listCurrency",
          "type": "address"
        }
      ],
      "name": "ListingEnded",
      "type": "event"
    },
    {
      "anonymous": false,
      "inputs": [
        {
          "indexed": true,
          "internalType": "uint256",
          "name": "listingId",
          "type": "uint256"
        },
        {
          "indexed": true,
          "internalType": "uint256",
          "name": "tokenId",
          "type": "uint256"
        },
        {
          "indexed": true,
          "internalType": "address",
          "name": "tokenContract",
          "type": "address"
        },
        {
          "indexed": false,
          "internalType": "uint256",
          "name": "listPrice",
          "type": "uint256"
        }
      ],
      "name": "ListingListPriceUpdated",
      "type": "event"
    },
    {
      "stateMutability": "payable",
      "type": "fallback"
    },
    {
      "inputs": [
        {
          "internalType": "uint256",
          "name": "listingId",
          "type": "uint256"
        }
      ],
      "name": "cancelListing",
      "outputs": [],
      "stateMutability": "nonpayable",
      "type": "function"
    },
    {
      "inputs": [
        {
          "internalType": "uint256",
          "name": "listingId",
          "type": "uint256"
        },
        {
          "internalType": "uint256",
          "name": "amount",
          "type": "uint256"
        }
      ],
      "name": "createBid",
      "outputs": [],
      "stateMutability": "payable",
      "type": "function"
    },
    {
      "inputs": [
        {
          "internalType": "uint256",
          "name": "listingId",
          "type": "uint256"
        },
        {
          "internalType": "uint256",
          "name": "amount",
          "type": "uint256"
        }
      ],
      "name": "createBidForFixed",
      "outputs": [],
      "stateMutability": "payable",
      "type": "function"
    },
    {
      "inputs": [
        {
          "internalType": "uint256",
          "name": "tokenId",
          "type": "uint256"
        },
        {
          "internalType": "address",
          "name": "tokenContract",
          "type": "address"
        },
        {
          "internalType": "uint256",
          "name": "startsAt",
          "type": "uint256"
        },
        {
          "internalType": "uint256",
          "name": "duration",
          "type": "uint256"
        },
        {
          "internalType": "uint256",
          "name": "listPrice",
          "type": "uint256"
        },
        {
          "internalType": "uint8",
          "name": "listType",
          "type": "uint8"
        },
        {
          "internalType": "address payable",
          "name": "intermediary",
          "type": "address"
        },
        {
          "internalType": "uint8",
          "name": "intermediaryFeePercentage",
          "type": "uint8"
        },
        {
          "internalType": "address",
          "name": "listCurrency",
          "type": "address"
        }
      ],
      "name": "createListing",
      "outputs": [
        {
          "internalType": "uint256",
          "name": "",
          "type": "uint256"
        }
      ],
      "stateMutability": "nonpayable",
      "type": "function"
    },
    {
      "inputs": [
        {
          "internalType": "uint256",
          "name": "listingId",
          "type": "uint256"
        }
      ],
      "name": "endListing",
      "outputs": [],
      "stateMutability": "nonpayable",
      "type": "function"
    },
    {
      "inputs": [
        {
          "internalType": "uint256",
          "name": "",
          "type": "uint256"
        }
      ],
      "name": "listings",
      "outputs": [
        {
          "internalType": "uint256",
          "name": "tokenId",
          "type": "uint256"
        },
        {
          "internalType": "address",
          "name": "tokenContract",
          "type": "address"
        },
        {
          "internalType": "bool",
          "name": "approved",
          "type": "bool"
        },
        {
          "internalType": "uint256",
          "name": "amount",
          "type": "uint256"
        },
        {
          "internalType": "uint256",
          "name": "startsAt",
          "type": "uint256"
        },
        {
          "internalType": "uint256",
          "name": "duration",
          "type": "uint256"
        },
        {
          "internalType": "uint256",
          "name": "firstBidTime",
          "type": "uint256"
        },
        {
          "internalType": "uint256",
          "name": "listPrice",
          "type": "uint256"
        },
        {
          "internalType": "uint8",
          "name": "listType",
          "type": "uint8"
        },
        {
          "internalType": "uint8",
          "name": "intermediaryFeePercentage",
          "type": "uint8"
        },
        {
          "internalType": "address",
          "name": "tokenOwner",
          "type": "address"
        },
        {
          "internalType": "address payable",
          "name": "bidder",
          "type": "address"
        },
        {
          "internalType": "address payable",
          "name": "intermediary",
          "type": "address"
        },
        {
          "internalType": "address",
          "name": "listCurrency",
          "type": "address"
        }
      ],
      "stateMutability": "view",
      "type": "function"
    },
    {
      "inputs": [],
      "name": "minBidIncrementPercentage",
      "outputs": [
        {
          "internalType": "uint8",
          "name": "",
          "type": "uint8"
        }
      ],
      "stateMutability": "view",
      "type": "function"
    },
    {
      "inputs": [],
      "name": "motif",
      "outputs": [
        {
          "internalType": "address",
          "name": "",
          "type": "address"
        }
      ],
      "stateMutability": "view",
      "type": "function"
    },
    {
      "inputs": [
        {
          "internalType": "uint256",
          "name": "listingId",
          "type": "uint256"
        },
        {
          "internalType": "bool",
          "name": "approved",
          "type": "bool"
        }
      ],
      "name": "setListingApproval",
      "outputs": [],
      "stateMutability": "nonpayable",
      "type": "function"
    },
    {
      "inputs": [
        {
          "internalType": "uint256",
          "name": "listingId",
          "type": "uint256"
        },
        {
          "internalType": "bool",
          "name": "approved",
          "type": "bool"
        },
        {
          "internalType": "uint256",
          "name": "startsAt",
          "type": "uint256"
        }
      ],
      "name": "setListingDropApproval",
      "outputs": [],
      "stateMutability": "nonpayable",
      "type": "function"
    },
    {
      "inputs": [
        {
          "internalType": "uint256",
          "name": "listingId",
          "type": "uint256"
        },
        {
          "internalType": "uint256",
          "name": "listPrice",
          "type": "uint256"
        }
      ],
      "name": "setListingListPrice",
      "outputs": [],
      "stateMutability": "nonpayable",
      "type": "function"
    },
    {
      "inputs": [],
      "name": "timeBuffer",
      "outputs": [
        {
          "internalType": "uint256",
          "name": "",
          "type": "uint256"
        }
      ],
      "stateMutability": "view",
      "type": "function"
    },
    {
      "inputs": [],
      "name": "wmotifAddress",
      "outputs": [
        {
          "internalType": "address",
          "name": "",
          "type": "address"
        }
      ],
      "stateMutability": "view",
      "type": "function"
    },
    {
      "stateMutability": "payable",
      "type": "receive"
    }
  ],
  "bytecode": "0x60806040523480156200001157600080fd5b5060405162003c6f38038062003c6f83398101604081905262000034916200013a565b60016000556040516301ffc9a760e01b81526001600160a01b038316906301ffc9a7906200006e906380ac58cd60e01b90600401620001a1565b60206040518083038186803b1580156200008757600080fd5b505afa1580156200009c573d6000803e3d6000fd5b505050506040513d601f19601f82011682018060405250810190620000c2919062000178565b620000ea5760405162461bcd60e51b8152600401620000e190620001b6565b60405180910390fd5b60028054600380546001600160a01b039485166001600160a01b03199091161790556104b060015560ff199290931661010002610100600160a81b03199093169290921716600517905562000206565b600080604083850312156200014d578182fd5b82516200015a81620001ed565b60208401519092506200016d81620001ed565b809150509250929050565b6000602082840312156200018a578081fd5b815180151581146200019a578182fd5b9392505050565b6001600160e01b031991909116815260200190565b6020808252601d908201527f446f65736e277420737570706f7274204e465420696e74657266616365000000604082015260600190565b6001600160a01b03811681146200020357600080fd5b50565b613a5980620002166000396000f3fe6080604052600436106100d65760003560e01c8063b7751c711161007f578063e273aece11610059578063e273aece14610226578063ec91f2a41461023b578063fac2e3d814610250578063fb4bd43914610270576100dd565b8063b7751c71146101b9578063c89e0985146101cc578063de74e57b146101ec576100dd565b806350a14d73116100b057806350a14d731461014a57806383872bc11461016a578063b296024d14610197576100dd565b806312604245146100df5780631582f801146100ff578063305a67a81461012a576100dd565b366100dd57005b005b3480156100eb57600080fd5b506100dd6100fa366004612cc6565b610283565b34801561010b57600080fd5b50610114610329565b6040516101219190612d7d565b60405180910390f35b34801561013657600080fd5b506100dd610145366004612c01565b610338565b34801561015657600080fd5b506100dd610165366004612cf5565b61042a565b34801561017657600080fd5b5061018a610185366004612c31565b6104fd565b6040516101219190613869565b3480156101a357600080fd5b506101ac610ae7565b60405161012191906139c3565b6100dd6101c7366004612d2c565b610af0565b3480156101d857600080fd5b506100dd6101e7366004612d2c565b6110d3565b3480156101f857600080fd5b5061020c610207366004612c01565b6111f4565b6040516101219e9d9c9b9a99989796959493929190613872565b34801561023257600080fd5b5061011461127a565b34801561024757600080fd5b5061018a61128e565b34801561025c57600080fd5b506100dd61026b366004612c01565b611294565b6100dd61027e366004612d2c565b611785565b8161028d81611d3e565b6102b25760405162461bcd60e51b81526004016102a99061309e565b60405180910390fd5b6000838152600460205260409020600901546001600160a01b031633146102eb5760405162461bcd60e51b81526004016102a990612eab565b6000838152600460205260409020600501541561031a5760405162461bcd60e51b81526004016102a99061310c565b6103248383611d64565b505050565b6003546001600160a01b031681565b6002600054141561035b5760405162461bcd60e51b81526004016102a9906136d3565b60026000558061036a81611d3e565b6103865760405162461bcd60e51b81526004016102a99061309e565b6000828152600460205260409020600701546201000090046001600160a01b03163314806103cd57506000828152600460205260409020600901546001600160a01b031633145b6103e95760405162461bcd60e51b81526004016102a9906134ba565b600082815260046020526040902060050154156104185760405162461bcd60e51b81526004016102a990612f87565b61042182611ddb565b50506001600055565b8261043481611d3e565b6104505760405162461bcd60e51b81526004016102a99061309e565b60008481526004602052604090206007015460ff166002146104845760405162461bcd60e51b81526004016102a990613741565b6000848152600460205260409020600901546001600160a01b031633146104bd5760405162461bcd60e51b81526004016102a990613778565b600084815260046020526040902060050154156104ec5760405162461bcd60e51b81526004016102a9906133ba565b6104f7848484611f63565b50505050565b6000600260005414156105225760405162461bcd60e51b81526004016102a9906136d3565b60026000556040517f01ffc9a70000000000000000000000000000000000000000000000000000000081526001600160a01b038a16906301ffc9a79061058c907f80ac58cd0000000000000000000000000000000000000000000000000000000090600401612e4b565b60206040518083038186803b1580156105a457600080fd5b505afa1580156105b8573d6000803e3d6000fd5b505050506040513d601f19601f820116820180604052508101906105dc9190612be5565b6105f85760405162461bcd60e51b81526004016102a9906137af565b60648360ff161061061b5760405162461bcd60e51b81526004016102a9906135ab565b6040517f6352211e0000000000000000000000000000000000000000000000000000000081526000906001600160a01b038b1690636352211e90610663908e90600401613869565b60206040518083038186803b15801561067b57600080fd5b505afa15801561068f573d6000803e3d6000fd5b505050506040513d601f19601f820116820180604052508101906106b39190612bc9565b6040517f081812fc0000000000000000000000000000000000000000000000000000000081529091506001600160a01b038b169063081812fc906106fb908e90600401613869565b60206040518083038186803b15801561071357600080fd5b505afa158015610727573d6000803e3d6000fd5b505050506040513d601f19601f8201168201806040525081019061074b9190612bc9565b6001600160a01b0316336001600160a01b031614806107725750336001600160a01b038216145b61078e5760405162461bcd60e51b81526004016102a990613608565b600061079a6005611fd7565b9050604051806101c001604052808d81526020018c6001600160a01b03168152602001600015158152602001600081526020018b81526020018a8152602001600081526020018981526020018860ff1681526020018660ff168152602001836001600160a01b0316815260200160006001600160a01b03168152602001876001600160a01b03168152602001856001600160a01b0316815250600460008381526020019081526020016000206000820151816000015560208201518160010160006101000a8154816001600160a01b0302191690836001600160a01b0316021790555060408201518160010160146101000a81548160ff021916908315150217905550606082015181600201556080820151816003015560a0820151816004015560c0820151816005015560e082015181600601556101008201518160070160006101000a81548160ff021916908360ff1602179055506101208201518160070160016101000a81548160ff021916908360ff1602179055506101408201518160070160026101000a8154816001600160a01b0302191690836001600160a01b031602179055506101608201518160080160006101000a8154816001600160a01b0302191690836001600160a01b031602179055506101808201518160090160006101000a8154816001600160a01b0302191690836001600160a01b031602179055506101a082015181600a0160006101000a8154816001600160a01b0302191690836001600160a01b031602179055509050508a6001600160a01b03166323b872dd83308f6040518463ffffffff1660e01b81526004016109fe93929190612d91565b600060405180830381600087803b158015610a1857600080fd5b505af1158015610a2c573d6000803e3d6000fd5b50505050610a3a6005611fdb565b8a6001600160a01b03168c827f804f18cb6eb2eeef9ae4bfec904ef4d2b03d3364418461d62d4919c3a746407a8d8d8d8d898e8e8e604051610a8398979695949392919061397b565b60405180910390a46000818152600460205260409020600901546001600160a01b03161580610ac35750816001600160a01b0316866001600160a01b0316145b15610ad357610ad3816001611d64565b60016000559b9a5050505050505050505050565b60025460ff1681565b81610afa81611d3e565b610b165760405162461bcd60e51b81526004016102a99061309e565b60026000541415610b395760405162461bcd60e51b81526004016102a9906136d3565b6002600090815583815260046020526040902060088101546001909101546001600160a01b0390911690600160a01b900460ff16610b895760405162461bcd60e51b81526004016102a9906132a2565b60008481526004602052604090206007015460ff1660011480610bc0575060008481526004602052604090206007015460ff166002145b610bdc5760405162461bcd60e51b81526004016102a99061344e565b600084815260046020526040902060030154421015610c0d5760405162461bcd60e51b81526004016102a990612f19565b6000848152600460205260409020600501541580610c535750600084815260046020819052604090912090810154600590910154610c509163ffffffff611fe416565b42105b610c6f5760405162461bcd60e51b81526004016102a990613665565b600084815260046020526040902060060154831015610ca05760405162461bcd60e51b81526004016102a990612ee2565b60028054600086815260046020526040902090910154610cfe91610ce091606491610cd4919060ff1663ffffffff61201216565b9063ffffffff61204c16565b6000868152600460205260409020600201549063ffffffff611fe416565b831015610d1d5760405162461bcd60e51b81526004016102a9906132ff565b6002546000858152600460205260409020600101546001600160a01b03908116610100909204161415610e9757600260019054906101000a90046001600160a01b03166001600160a01b031663639e81706040518163ffffffff1660e01b8152600401602060405180830381600087803b158015610d9a57600080fd5b505af1158015610dae573d6000803e3d6000fd5b505050506040513d601f19601f82011682018060405250810190610dd29190612bc9565b6000858152600460208190526040918290205491517f02e8fe130000000000000000000000000000000000000000000000000000000081526001600160a01b0393909316926302e8fe1392610e2b92909188910161396d565b60206040518083038186803b158015610e4357600080fd5b505afa158015610e57573d6000803e3d6000fd5b505050506040513d601f19601f82011682018060405250810190610e7b9190612be5565b610e975760405162461bcd60e51b81526004016102a990612f50565b600084815260046020526040902060050154610ec757600084815260046020526040902042600590910155610f03565b6001600160a01b03811615610f035760008481526004602052604090206002810154600a90910154610f039183916001600160a01b031661207e565b6000848152600460205260409020600a0154610f299084906001600160a01b03166121bc565b60008481526004602081905260408220600281018690556008810180546001600160a01b0319163317905560015491810154600590910154610f82914291610f769163ffffffff611fe416565b9063ffffffff6123ac16565b1015610ff657600085815260046020819052604090912090810154600590910154610fdd90610fd090610fc1904290610f76908663ffffffff611fe416565b6001549063ffffffff6123ac16565b829063ffffffff611fe416565b6000878152600460208190526040909120015550600190505b600085815260046020526040908190206001810154905491516001600160a01b03918216929188917fdf3c258fd5ebb54ac1a83c73feafacc466858d3badc3dda9c4034b0da1da54d9916110549133918b91908a1615908990612db5565b60405180910390a480156110c75760008581526004602081905260409182902060018101548154919092015492516001600160a01b0390921692909188917f7c5d8b1980b451e2d8e5887c47bfdb1153d8b8de54ca953d110c9ec926dba3e3916110be9190613869565b60405180910390a45b50506001600055505050565b816110dd81611d3e565b6110f95760405162461bcd60e51b81526004016102a99061309e565b6000838152600460205260409020600901546001600160a01b031633148061114057506000838152600460205260409020600701546201000090046001600160a01b031633145b61115c5760405162461bcd60e51b81526004016102a990612fe4565b6000838152600460205260409020600501541561118b5760405162461bcd60e51b81526004016102a99061310c565b60008381526004602052604090819020600681018490556001810154905491516001600160a01b03909116919085907f0409843698c80a52d5e9991fdf99f888ac3f2282b93ddd87bbb63df422907e94906111e7908790613869565b60405180910390a4505050565b600460208190526000918252604090912080546001820154600283015460038401549484015460058501546006860154600787015460088801546009890154600a9099015497996001600160a01b038089169a60ff600160a01b909a048a169a98999298858416956101008104909416946201000090940483169383169291821691168e565b60025461010090046001600160a01b031681565b60015481565b8061129e81611d3e565b6112ba5760405162461bcd60e51b81526004016102a99061309e565b600260005414156112dd5760405162461bcd60e51b81526004016102a9906136d3565b600260009081558281526004602052604090206007015460ff1660011480611319575060008281526004602052604090206007015460ff166002145b6113355760405162461bcd60e51b81526004016102a99061344e565b6000828152600460205260409020600501546113635760405162461bcd60e51b81526004016102a99061370a565b6000828152600460205260409020600301544210156113945760405162461bcd60e51b81526004016102a990612f19565b6000828152600460208190526040909120908101546005909101546113be9163ffffffff611fe416565b4210156113dd5760405162461bcd60e51b81526004016102a99061369c565b6000828152600460205260408120600a01546001600160a01b03161561141d576000838152600460205260409020600a01546001600160a01b031661142a565b6003546001600160a01b03165b6000848152600460205260408120600280820154905460019092015493945091926001600160a01b039081166101009092041614156114d05760008061146f876123d4565b935091508290506001821515146114c957600087815260046020526040902060088101546002820154600a909201546114b6926001600160a01b039283169290911661207e565b6114bf87611ddb565b5050505050610421565b5050611590565b6000858152600460208190526040918290206001810154600882015491549351632142170760e11b81526001600160a01b03918216946342842e0e9461151a943094169201612d91565b600060405180830381600087803b15801561153457600080fd5b505af1925050508015611545575060015b61159057600085815260046020526040902060088101546002820154600a9092015461157f926001600160a01b039283169290911661207e565b61158885611ddb565b505050610421565b6000858152600460205260409020600901546001600160a01b031615611622576000858152600460205260409020600701546115dc90606490610cd4908490610100900460ff16612012565b91506115ee818363ffffffff6123ac16565b60008681526004602052604090206009810154600a90910154919250611622916001600160a01b039182169185911661207e565b60008581526004602052604090206007810154600a90910154611659916001600160a01b036201000090910481169184911661207e565b60008581526004602052604090819020600181015481546007830154600984015460089094015494516001600160a01b039384169592948b947f334843dd102fb480fd982e331134a746cae45483f35aa91db449e96cb90cc5f1946116d3946201000090048216939282169291169089908b908d90612ddf565b60405180910390a450505060009182525060046020819052604082208281556001808201805474ffffffffffffffffffffffffffffffffffffffffff191690556002820184905560038201849055918101839055600581018390556006810183905560078101805475ffffffffffffffffffffffffffffffffffffffffffff191690556008810180546001600160a01b031990811690915560098201805482169055600a909101805490911690559055565b8161178f81611d3e565b6117ab5760405162461bcd60e51b81526004016102a99061309e565b600260005414156117ce5760405162461bcd60e51b81526004016102a9906136d3565b6002600090815583815260046020526040902060088101546001909101546001600160a01b0390911690600160a01b900460ff1661181e5760405162461bcd60e51b81526004016102a99061320e565b60008481526004602052604090206007015460ff166003146118525760405162461bcd60e51b81526004016102a990613483565b6000848152600460205260409020600301544210156118835760405162461bcd60e51b81526004016102a990612f19565b60008481526004602052604090206006015483146118b35760405162461bcd60e51b81526004016102a99061317a565b600084815260046020526040902060050154156118e25760405162461bcd60e51b81526004016102a9906133f1565b6000848152600460205260409020426005820155600a015461190e9084906001600160a01b03166121bc565b600084815260046020526040808220600281018690556008810180546001600160a01b031916339081179091556001820154915492516001600160a01b039283169489937fdf3c258fd5ebb54ac1a83c73feafacc466858d3badc3dda9c4034b0da1da54d9936119859390928b928a161591612db5565b60405180910390a46000848152600460205260408120600a01546001600160a01b0316156119cd576000858152600460205260409020600a01546001600160a01b03166119da565b6003546001600160a01b03165b6000868152600460205260408120600280820154905460019092015493945091926001600160a01b03908116610100909204161415611a8157600080611a1f896123d4565b93509150829050600182151514611a7a57600089815260046020526040902060088101546002820154600a90920154611a66926001600160a01b039283169290911661207e565b611a6f89611ddb565b505050505050611d34565b5050611b42565b6000878152600460208190526040918290206001810154600882015491549351632142170760e11b81526001600160a01b03918216946342842e0e94611acb943094169201612d91565b600060405180830381600087803b158015611ae557600080fd5b505af1925050508015611af6575060015b611b4257600087815260046020526040902060088101546002820154600a90920154611b30926001600160a01b039283169290911661207e565b611b3987611ddb565b50505050611d34565b6000878152600460205260409020600901546001600160a01b031615611bd457600087815260046020526040902060070154611b8e90606490610cd4908490610100900460ff16612012565b9150611ba0818363ffffffff6123ac16565b60008881526004602052604090206009810154600a90910154919250611bd4916001600160a01b039182169185911661207e565b60008781526004602052604090206007810154600a90910154611c0b916001600160a01b036201000090910481169184911661207e565b60008781526004602052604090819020600181015481546007830154600984015460089094015494516001600160a01b039384169592948d947f334843dd102fb480fd982e331134a746cae45483f35aa91db449e96cb90cc5f194611c85946201000090048216939282169291169089908b908d90612ddf565b60405180910390a45050506000848152600460208190526040822082815560018101805474ffffffffffffffffffffffffffffffffffffffffff19169055600281018390556003810183905590810182905560058101829055600681019190915560078101805475ffffffffffffffffffffffffffffffffffffffffffff191690556008810180546001600160a01b031990811690915560098201805482169055600a90910180549091169055505b5050600160005550565b6000908152600460205260409020600701546201000090046001600160a01b0316151590565b6000828152600460205260409081902060018101805460ff60a01b1916600160a01b851515021790819055905491516001600160a01b03909116919084907f301b3a878e4bfbb57bd5babb78545aff93752440eb359d65b3ad34de32d842fc90611dcf908690612e30565b60405180910390a45050565b6000818152600460208190526040918290206007810154600182015491549351632142170760e11b8152620100009091046001600160a01b03908116949216926342842e0e92611e3092309287929101612d91565b600060405180830381600087803b158015611e4a57600080fd5b505af1158015611e5e573d6000803e3d6000fd5b505050600083815260046020526040908190206001810154905491516001600160a01b03909116925084907fd5074712d772916d5592447e134f0f148b438068d1cd2559a4b2ab8990c0fba090611eb6908690612d7d565b60405180910390a4506000908152600460208190526040822082815560018101805474ffffffffffffffffffffffffffffffffffffffffff19169055600281018390556003810183905590810182905560058101829055600681019190915560078101805475ffffffffffffffffffffffffffffffffffffffffffff191690556008810180546001600160a01b031990811690915560098201805482169055600a90910180549091169055565b6000838152600460205260409081902060018101805460ff60a01b1916600160a01b86151502179081905560038201849055905491516001600160a01b03909116919085907f366ba2ff3ae87084a6b770c4ac0371bf0647243b3ab1a7f5c751d29322aa6161906111e79087908790612e3b565b5490565b80546001019055565b6000828201838110156120095760405162461bcd60e51b81526004016102a9906130d5565b90505b92915050565b6000826120215750600061200c565b8282028284828161202e57fe5b04146120095760405162461bcd60e51b81526004016102a99061335d565b600080821161206d5760405162461bcd60e51b81526004016102a99061326b565b81838161207657fe5b049392505050565b6001600160a01b0381166121a2576003546040517f2e1a7d4d0000000000000000000000000000000000000000000000000000000081526001600160a01b0390911690632e1a7d4d906120d5908590600401613869565b600060405180830381600087803b1580156120ef57600080fd5b505af1158015612103573d6000803e3d6000fd5b505050506121118383612893565b61219d57600360009054906101000a90046001600160a01b03166001600160a01b031663d0e30db0836040518263ffffffff1660e01b81526004016000604051808303818588803b15801561216557600080fd5b505af1158015612179573d6000803e3d6000fd5b505060035461219d93506001600160a01b031691508590508463ffffffff61290a16565b610324565b6103246001600160a01b038216848463ffffffff61290a16565b6001600160a01b038116612257578134146121e95760405162461bcd60e51b81526004016102a990613041565b600360009054906101000a90046001600160a01b03166001600160a01b031663d0e30db0836040518263ffffffff1660e01b81526004016000604051808303818588803b15801561223957600080fd5b505af115801561224d573d6000803e3d6000fd5b50505050506123a8565b6040516370a0823160e01b815281906000906001600160a01b038316906370a0823190612288903090600401612d7d565b60206040518083038186803b1580156122a057600080fd5b505afa1580156122b4573d6000803e3d6000fd5b505050506040513d601f19601f820116820180604052508101906122d89190612c19565b90506122f56001600160a01b03831633308763ffffffff61298d16565b6040516370a0823160e01b81526000906001600160a01b038416906370a0823190612324903090600401612d7d565b60206040518083038186803b15801561233c57600080fd5b505afa158015612350573d6000803e3d6000fd5b505050506040513d601f19601f820116820180604052508101906123749190612c19565b905080612387838763ffffffff611fe416565b146123a45760405162461bcd60e51b81526004016102a99061380c565b5050505b5050565b6000828211156123ce5760405162461bcd60e51b81526004016102a990613143565b50900390565b6000818152600460205260408120600a0154819081906001600160a01b031615612418576000848152600460205260409020600a01546001600160a01b0316612425565b6003546001600160a01b03165b905061242f612b56565b506040805160a08101825260008681526004602081815284832060028082015486526001600160a01b0380891684880181905230888a01528c875285855260089093015481166060880152875180850189528681526080880152905487517f639e817000000000000000000000000000000000000000000000000000000000815297519697929663095ea7b3966101009092049092169463639e817094848201949093929083900390910190829087803b1580156124ec57600080fd5b505af1158015612500573d6000803e3d6000fd5b505050506040513d601f19601f820116820180604052508101906125249190612bc9565b83516040517fffffffff0000000000000000000000000000000000000000000000000000000060e085901b168152612560929190600401612e17565b602060405180830381600087803b15801561257a57600080fd5b505af115801561258e573d6000803e3d6000fd5b505050506040513d601f19601f820116820180604052508101906125b29190612be5565b506002546000868152600460208190526040918290205491517f5bf624220000000000000000000000000000000000000000000000000000000081526101009093046001600160a01b031692635bf624229261261292909186910161391a565b600060405180830381600087803b15801561262c57600080fd5b505af1158015612640573d6000803e3d6000fd5b50506040516370a0823160e01b8152600092506001600160a01b03851691506370a0823190612673903090600401612d7d565b60206040518083038186803b15801561268b57600080fd5b505afa15801561269f573d6000803e3d6000fd5b505050506040513d601f19601f820116820180604052508101906126c39190612c19565b6002546000888152600460208190526040918290205491517fba3393990000000000000000000000000000000000000000000000000000000081529394506101009092046001600160a01b03169263ba33939992612724929187910161391a565b600060405180830381600087803b15801561273e57600080fd5b505af192505050801561274f575060015b6127f2576002546000878152600460208190526040918290205491517fb320f4590000000000000000000000000000000000000000000000000000000081526101009093046001600160a01b03169263b320f459926127b092909101613869565b600060405180830381600087803b1580156127ca57600080fd5b505af11580156127de573d6000803e3d6000fd5b506000975087965061288e95505050505050565b6040516370a0823160e01b81526000906001600160a01b038516906370a0823190612821903090600401612d7d565b60206040518083038186803b15801561283957600080fd5b505afa15801561284d573d6000803e3d6000fd5b505050506040513d601f19601f820116820180604052508101906128719190612c19565b90506001612885828463ffffffff6123ac16565b95509550505050505b915091565b60408051600080825260208201928390529182916001600160a01b0386169185916128bd91612d61565b60006040518083038185875af1925050503d80600081146128fa576040519150601f19603f3d011682016040523d82523d6000602084013e6128ff565b606091505b509095945050505050565b6103248363a9059cbb60e01b8484604051602401612929929190612e17565b60408051601f198184030181529190526020810180517bffffffffffffffffffffffffffffffffffffffffffffffffffffffff167fffffffff00000000000000000000000000000000000000000000000000000000909316929092179091526129ae565b6104f7846323b872dd60e01b85858560405160240161292993929190612d91565b6060612a03826040518060400160405280602081526020017f5361666545524332303a206c6f772d6c6576656c2063616c6c206661696c6564815250856001600160a01b0316612a3d9092919063ffffffff16565b8051909150156103245780806020019051810190612a219190612be5565b6103245760405162461bcd60e51b81526004016102a99061354e565b6060612a4c8484600085612a56565b90505b9392505050565b606082471015612a785760405162461bcd60e51b81526004016102a9906131b1565b612a8185612b17565b612a9d5760405162461bcd60e51b81526004016102a990613517565b60006060866001600160a01b03168587604051612aba9190612d61565b60006040518083038185875af1925050503d8060008114612af7576040519150601f19603f3d011682016040523d82523d6000602084013e612afc565b606091505b5091509150612b0c828286612b1d565b979650505050505050565b3b151590565b60608315612b2c575081612a4f565b825115612b3c5782518084602001fd5b8160405162461bcd60e51b81526004016102a99190612e78565b6040518060a001604052806000815260200160006001600160a01b0316815260200160006001600160a01b0316815260200160006001600160a01b03168152602001612ba0612ba5565b905290565b6040518060200160405280600081525090565b803560ff8116811461200c57600080fd5b600060208284031215612bda578081fd5b8151612009816139fd565b600060208284031215612bf6578081fd5b815161200981613a15565b600060208284031215612c12578081fd5b5035919050565b600060208284031215612c2a578081fd5b5051919050565b60008060008060008060008060006101208a8c031215612c4f578485fd5b8935985060208a0135612c61816139fd565b975060408a0135965060608a0135955060808a01359450612c858b60a08c01612bb8565b935060c08a0135612c95816139fd565b9250612ca48b60e08c01612bb8565b91506101008a0135612cb5816139fd565b809150509295985092959850929598565b60008060408385031215612cd8578182fd5b823591506020830135612cea81613a15565b809150509250929050565b600080600060608486031215612d09578283fd5b833592506020840135612d1b81613a15565b929592945050506040919091013590565b60008060408385031215612d3e578182fd5b50508035926020909101359150565b6001600160a01b03169052565b60ff169052565b60008251612d738184602087016139d1565b9190910192915050565b6001600160a01b0391909116815260200190565b6001600160a01b039384168152919092166020820152604081019190915260600190565b6001600160a01b039490941684526020840192909252151560408301521515606082015260800190565b6001600160a01b039687168152948616602086015292851660408501526060840191909152608083015290911660a082015260c00190565b6001600160a01b03929092168252602082015260400190565b901515815260200190565b9115158252602082015260400190565b7fffffffff0000000000000000000000000000000000000000000000000000000091909116815260200190565b6000602082528251806020840152612e978160408501602087016139d1565b601f01601f19169190910160400192915050565b6020808252601c908201527f4d757374206265206c697374696e6720696e7465726d65646961727900000000604082015260600190565b6020808252601c908201527f4d7573742073656e64206174206c65617374206c697374507269636500000000604082015260600190565b60208082526012908201527f4c697374206973206e6f74206163746976650000000000000000000000000000604082015260600190565b6020808252601f908201527f42696420696e76616c696420666f722073686172652073706c697474696e6700604082015260600190565b60208082526027908201527f43616e27742063616e63656c20616e206c697374696e67206f6e63652069742760408201527f7320626567756e00000000000000000000000000000000000000000000000000606082015260800190565b6020808252602b908201527f4d757374206265206c697374696e6720696e7465726d656469617279206f722060408201527f746f6b656e206f776e6572000000000000000000000000000000000000000000606082015260800190565b60208082526034908201527f53656e74204d4f5449462056616c756520646f6573206e6f74206d617463682060408201527f7370656369666965642062696420616d6f756e74000000000000000000000000606082015260800190565b60208082526015908201527f4c697374696e6720646f65736e27742065786973740000000000000000000000604082015260600190565b6020808252601b908201527f536166654d6174683a206164646974696f6e206f766572666c6f770000000000604082015260600190565b6020808252601b908201527f4c697374696e672068617320616c726561647920737461727465640000000000604082015260600190565b6020808252601e908201527f536166654d6174683a207375627472616374696f6e206f766572666c6f770000604082015260600190565b6020808252601d908201527f4d7573742070726f76696465206c697374507269636520616d6f756e74000000604082015260600190565b60208082526026908201527f416464726573733a20696e73756666696369656e742062616c616e636520666f60408201527f722063616c6c0000000000000000000000000000000000000000000000000000606082015260800190565b60208082526025908201527f4c697374206d75737420626520617070726f76656420627920696e7465726d6560408201527f6469617279000000000000000000000000000000000000000000000000000000606082015260800190565b6020808252601a908201527f536166654d6174683a206469766973696f6e206279207a65726f000000000000604082015260600190565b60208082526028908201527f4c697374696e67206d75737420626520617070726f76656420627920696e746560408201527f726d656469617279000000000000000000000000000000000000000000000000606082015260800190565b602080825260409082018190527f4d7573742073656e64206d6f7265207468616e206c6173742062696420627920908201527f6d696e426964496e6372656d656e7450657263656e7461676520616d6f756e74606082015260800190565b60208082526021908201527f536166654d6174683a206d756c7469706c69636174696f6e206f766572666c6f60408201527f7700000000000000000000000000000000000000000000000000000000000000606082015260800190565b60208082526018908201527f4c6973742068617320616c726561647920737461727465640000000000000000604082015260600190565b60208082526027908201527f4c69737420747970652063616e6e6f742068617665206d6f7265207468616e2060408201527f6f6e652062696400000000000000000000000000000000000000000000000000606082015260800190565b6020808252818101527f4d7573742062652062696464696e67206f722064726f70206c69737454797065604082015260600190565b6020808252601c908201527f4d757374206265206669786564207072696365206c6973745479706500000000604082015260600190565b60208082526035908201527f43616e206f6e6c792062652063616c6c6564206279206c697374696e6720637260408201527f6561746f72206f7220696e7465726d6564696172790000000000000000000000606082015260800190565b6020808252601d908201527f416464726573733a2063616c6c20746f206e6f6e2d636f6e7472616374000000604082015260600190565b6020808252602a908201527f5361666545524332303a204552433230206f7065726174696f6e20646964206e60408201527f6f74207375636365656400000000000000000000000000000000000000000000606082015260800190565b6020808252602f908201527f696e7465726d65646961727946656550657263656e74616765206d757374206260408201527f65206c657373207468616e203130300000000000000000000000000000000000606082015260800190565b6020808252602d908201527f43616c6c6572206d75737420626520617070726f766564206f72206f776e657260408201527f20666f7220746f6b656e20696400000000000000000000000000000000000000606082015260800190565b6020808252600f908201527f4c697374696e6720657870697265640000000000000000000000000000000000604082015260600190565b60208082526018908201527f4c697374696e67206861736e277420636f6d706c657465640000000000000000604082015260600190565b6020808252601f908201527f5265656e7472616e637947756172643a207265656e7472616e742063616c6c00604082015260600190565b60208082526014908201527f4c697374696e67206861736e277420626567756e000000000000000000000000604082015260600190565b60208082526015908201527f4d7573742062652064726f70206c697374547970650000000000000000000000604082015260600190565b60208082526019908201527f4d757374206265206c69737420696e7465726d65646961727900000000000000604082015260600190565b6020808252602f908201527f746f6b656e436f6e747261637420646f6573206e6f7420737570706f7274204560408201527f524337323120696e746572666163650000000000000000000000000000000000606082015260800190565b60208082526034908201527f546f6b656e207472616e736665722063616c6c20646964206e6f74207472616e60408201527f7366657220657870656374656420616d6f756e74000000000000000000000000606082015260800190565b90815260200190565b60006101c0820190508f82526001600160a01b038f1660208301528d151560408301528c60608301528b60808301528a60a08301528960c08301528860e08301526138c1610100830189612d5a565b6138cf610120830188612d5a565b6138dd610140830187612d4d565b6138eb610160830186612d4d565b6138f9610180830185612d4d565b6139076101a0830184612d4d565b9f9e505050505050505050505050505050565b600060c0820190508382528251602083015260208301516001600160a01b038082166040850152806040860151166060850152806060860151166080850152505060808301515160a08301529392505050565b918252602082015260400190565b9788526020880196909652604087019490945260ff92831660608701526001600160a01b039182166080870152811660a0860152911660c08401521660e08201526101000190565b60ff91909116815260200190565b60005b838110156139ec5781810151838201526020016139d4565b838111156104f75750506000910152565b6001600160a01b0381168114613a1257600080fd5b50565b8015158114613a1257600080fdfea2646970667358221220ddff8ec5687b837676175ac16507ec524fdcfb7e57b7cf5fa225c616870fd95c64736f6c63430006080033",
  "linkReferences": {},
  "deployedLinkReferences": {}
}