{
  "_format": "hh-sol-artifact-1",
  "contractName": "LandListing",
  "sourceName": "contracts/LandListing.sol",
  "abi": [
    {
      "inputs": [
        {
          "internalType": "address",
          "name": "_motif",
          "type": "address"
        },
        {
          "internalType": "address",
          "name": "_wmotif",
          "type": "address"
        }
      ],
      "stateMutability": "nonpayable",
      "type": "constructor"
    },
    {
      "anonymous": false,
      "inputs": [
        {
          "indexed": true,
          "internalType": "uint256",
          "name": "listingId",
          "type": "uint256"
        },
        {
          "indexed": true,
          "internalType": "uint256",
          "name": "tokenId",
          "type": "uint256"
        },
        {
          "indexed": true,
          "internalType": "address",
          "name": "tokenContract",
          "type": "address"
        },
        {
          "indexed": false,
          "internalType": "bool",
          "name": "approved",
          "type": "bool"
        }
      ],
      "name": "ListingApprovalUpdated",
      "type": "event"
    },
    {
      "anonymous": false,
      "inputs": [
        {
          "indexed": true,
          "internalType": "uint256",
          "name": "listingId",
          "type": "uint256"
        },
        {
          "indexed": true,
          "internalType": "uint256",
          "name": "tokenId",
          "type": "uint256"
        },
        {
          "indexed": true,
          "internalType": "address",
          "name": "tokenContract",
          "type": "address"
        },
        {
          "indexed": false,
          "internalType": "address",
          "name": "sender",
          "type": "address"
        },
        {
          "indexed": false,
          "internalType": "uint256",
          "name": "value",
          "type": "uint256"
        },
        {
          "indexed": false,
          "internalType": "bool",
          "name": "firstBid",
          "type": "bool"
        },
        {
          "indexed": false,
          "internalType": "bool",
          "name": "extended",
          "type": "bool"
        }
      ],
      "name": "ListingBid",
      "type": "event"
    },
    {
      "anonymous": false,
      "inputs": [
        {
          "indexed": true,
          "internalType": "uint256",
          "name": "listingId",
          "type": "uint256"
        },
        {
          "indexed": true,
          "internalType": "uint256",
          "name": "tokenId",
          "type": "uint256"
        },
        {
          "indexed": true,
          "internalType": "address",
          "name": "tokenContract",
          "type": "address"
        },
        {
          "indexed": false,
          "internalType": "address",
          "name": "tokenOwner",
          "type": "address"
        }
      ],
      "name": "ListingCanceled",
      "type": "event"
    },
    {
      "anonymous": false,
      "inputs": [
        {
          "indexed": true,
          "internalType": "uint256",
          "name": "listingId",
          "type": "uint256"
        },
        {
          "indexed": true,
          "internalType": "uint256",
          "name": "tokenId",
          "type": "uint256"
        },
        {
          "indexed": true,
          "internalType": "address",
          "name": "tokenContract",
          "type": "address"
        },
        {
          "indexed": false,
          "internalType": "uint256",
          "name": "startsAt",
          "type": "uint256"
        },
        {
          "indexed": false,
          "internalType": "uint256",
          "name": "duration",
          "type": "uint256"
        },
        {
          "indexed": false,
          "internalType": "uint256",
          "name": "listPrice",
          "type": "uint256"
        },
        {
          "indexed": false,
          "internalType": "uint8",
          "name": "listType",
          "type": "uint8"
        },
        {
          "indexed": false,
          "internalType": "address",
          "name": "tokenOwner",
          "type": "address"
        },
        {
          "indexed": false,
          "internalType": "address",
          "name": "intermediary",
          "type": "address"
        },
        {
          "indexed": false,
          "internalType": "uint8",
          "name": "intermediaryFeePercentage",
          "type": "uint8"
        },
        {
          "indexed": false,
          "internalType": "address",
          "name": "listCurrency",
          "type": "address"
        }
      ],
      "name": "ListingCreated",
      "type": "event"
    },
    {
      "anonymous": false,
      "inputs": [
        {
          "indexed": true,
          "internalType": "uint256",
          "name": "listingId",
          "type": "uint256"
        },
        {
          "indexed": true,
          "internalType": "uint256",
          "name": "tokenId",
          "type": "uint256"
        },
        {
          "indexed": true,
          "internalType": "address",
          "name": "tokenContract",
          "type": "address"
        },
        {
          "indexed": false,
          "internalType": "bool",
          "name": "approved",
          "type": "bool"
        },
        {
          "indexed": false,
          "internalType": "uint256",
          "name": "startsAt",
          "type": "uint256"
        }
      ],
      "name": "ListingDropApprovalUpdated",
      "type": "event"
    },
    {
      "anonymous": false,
      "inputs": [
        {
          "indexed": true,
          "internalType": "uint256",
          "name": "listingId",
          "type": "uint256"
        },
        {
          "indexed": true,
          "internalType": "uint256",
          "name": "tokenId",
          "type": "uint256"
        },
        {
          "indexed": true,
          "internalType": "address",
          "name": "tokenContract",
          "type": "address"
        },
        {
          "indexed": false,
          "internalType": "uint256",
          "name": "duration",
          "type": "uint256"
        }
      ],
      "name": "ListingDurationExtended",
      "type": "event"
    },
    {
      "anonymous": false,
      "inputs": [
        {
          "indexed": true,
          "internalType": "uint256",
          "name": "listingId",
          "type": "uint256"
        },
        {
          "indexed": true,
          "internalType": "uint256",
          "name": "tokenId",
          "type": "uint256"
        },
        {
          "indexed": true,
          "internalType": "address",
          "name": "tokenContract",
          "type": "address"
        },
        {
          "indexed": false,
          "internalType": "address",
          "name": "tokenOwner",
          "type": "address"
        },
        {
          "indexed": false,
          "internalType": "address",
          "name": "intermediary",
          "type": "address"
        },
        {
          "indexed": false,
          "internalType": "address",
          "name": "winner",
          "type": "address"
        },
        {
          "indexed": false,
          "internalType": "uint256",
          "name": "amount",
          "type": "uint256"
        },
        {
          "indexed": false,
          "internalType": "uint256",
          "name": "intermediaryFee",
          "type": "uint256"
        },
        {
          "indexed": false,
          "internalType": "address",
          "name": "listCurrency",
          "type": "address"
        }
      ],
      "name": "ListingEnded",
      "type": "event"
    },
    {
      "anonymous": false,
      "inputs": [
        {
          "indexed": true,
          "internalType": "uint256",
          "name": "listingId",
          "type": "uint256"
        },
        {
          "indexed": true,
          "internalType": "uint256",
          "name": "tokenId",
          "type": "uint256"
        },
        {
          "indexed": true,
          "internalType": "address",
          "name": "tokenContract",
          "type": "address"
        },
        {
          "indexed": false,
          "internalType": "uint256",
          "name": "listPrice",
          "type": "uint256"
        }
      ],
      "name": "ListingListPriceUpdated",
      "type": "event"
    },
    {
      "stateMutability": "payable",
      "type": "fallback"
    },
    {
      "inputs": [
        {
          "internalType": "uint256",
          "name": "listingId",
          "type": "uint256"
        }
      ],
      "name": "cancelListing",
      "outputs": [],
      "stateMutability": "nonpayable",
      "type": "function"
    },
    {
      "inputs": [
        {
          "internalType": "uint256",
          "name": "listingId",
          "type": "uint256"
        },
        {
          "internalType": "uint256",
          "name": "amount",
          "type": "uint256"
        }
      ],
      "name": "createBid",
      "outputs": [],
      "stateMutability": "payable",
      "type": "function"
    },
    {
      "inputs": [
        {
          "internalType": "uint256",
          "name": "tokenId",
          "type": "uint256"
        },
        {
          "internalType": "address",
          "name": "tokenContract",
          "type": "address"
        },
        {
          "internalType": "uint256",
          "name": "startsAt",
          "type": "uint256"
        },
        {
          "internalType": "uint256",
          "name": "duration",
          "type": "uint256"
        },
        {
          "internalType": "uint256",
          "name": "listPrice",
          "type": "uint256"
        },
        {
          "internalType": "uint8",
          "name": "listType",
          "type": "uint8"
        },
        {
          "internalType": "address payable",
          "name": "intermediary",
          "type": "address"
        },
        {
          "internalType": "uint8",
          "name": "intermediaryFeePercentage",
          "type": "uint8"
        },
        {
          "internalType": "address",
          "name": "listCurrency",
          "type": "address"
        }
      ],
      "name": "createListing",
      "outputs": [
        {
          "internalType": "uint256",
          "name": "",
          "type": "uint256"
        }
      ],
      "stateMutability": "nonpayable",
      "type": "function"
    },
    {
      "inputs": [
        {
          "internalType": "uint256",
          "name": "listingId",
          "type": "uint256"
        },
        {
          "internalType": "uint256",
          "name": "amount",
          "type": "uint256"
        }
      ],
      "name": "endFixedPriceListing",
      "outputs": [],
      "stateMutability": "payable",
      "type": "function"
    },
    {
      "inputs": [
        {
          "internalType": "uint256",
          "name": "listingId",
          "type": "uint256"
        }
      ],
      "name": "endListing",
      "outputs": [],
      "stateMutability": "nonpayable",
      "type": "function"
    },
    {
      "inputs": [
        {
          "internalType": "uint256",
          "name": "",
          "type": "uint256"
        }
      ],
      "name": "listings",
      "outputs": [
        {
          "internalType": "uint256",
          "name": "tokenId",
          "type": "uint256"
        },
        {
          "internalType": "address",
          "name": "tokenContract",
          "type": "address"
        },
        {
          "internalType": "bool",
          "name": "approved",
          "type": "bool"
        },
        {
          "internalType": "uint256",
          "name": "amount",
          "type": "uint256"
        },
        {
          "internalType": "uint256",
          "name": "startsAt",
          "type": "uint256"
        },
        {
          "internalType": "uint256",
          "name": "duration",
          "type": "uint256"
        },
        {
          "internalType": "uint256",
          "name": "firstBidTime",
          "type": "uint256"
        },
        {
          "internalType": "uint256",
          "name": "listPrice",
          "type": "uint256"
        },
        {
          "internalType": "uint8",
          "name": "listType",
          "type": "uint8"
        },
        {
          "internalType": "uint8",
          "name": "intermediaryFeePercentage",
          "type": "uint8"
        },
        {
          "internalType": "address",
          "name": "tokenOwner",
          "type": "address"
        },
        {
          "internalType": "address payable",
          "name": "bidder",
          "type": "address"
        },
        {
          "internalType": "address payable",
          "name": "intermediary",
          "type": "address"
        },
        {
          "internalType": "address",
          "name": "listCurrency",
          "type": "address"
        }
      ],
      "stateMutability": "view",
      "type": "function"
    },
    {
      "inputs": [],
      "name": "minBidIncrementPercentage",
      "outputs": [
        {
          "internalType": "uint8",
          "name": "",
          "type": "uint8"
        }
      ],
      "stateMutability": "view",
      "type": "function"
    },
    {
      "inputs": [],
      "name": "motif",
      "outputs": [
        {
          "internalType": "address",
          "name": "",
          "type": "address"
        }
      ],
      "stateMutability": "view",
      "type": "function"
    },
    {
      "inputs": [
        {
          "internalType": "uint256",
          "name": "listingId",
          "type": "uint256"
        },
        {
          "internalType": "bool",
          "name": "approved",
          "type": "bool"
        }
      ],
      "name": "setListingApproval",
      "outputs": [],
      "stateMutability": "nonpayable",
      "type": "function"
    },
    {
      "inputs": [
        {
          "internalType": "uint256",
          "name": "listingId",
          "type": "uint256"
        },
        {
          "internalType": "bool",
          "name": "approved",
          "type": "bool"
        },
        {
          "internalType": "uint256",
          "name": "startsAt",
          "type": "uint256"
        }
      ],
      "name": "setListingDropApproval",
      "outputs": [],
      "stateMutability": "nonpayable",
      "type": "function"
    },
    {
      "inputs": [
        {
          "internalType": "uint256",
          "name": "listingId",
          "type": "uint256"
        },
        {
          "internalType": "uint256",
          "name": "listPrice",
          "type": "uint256"
        }
      ],
      "name": "setListingListPrice",
      "outputs": [],
      "stateMutability": "nonpayable",
      "type": "function"
    },
    {
      "inputs": [],
      "name": "timeBuffer",
      "outputs": [
        {
          "internalType": "uint256",
          "name": "",
          "type": "uint256"
        }
      ],
      "stateMutability": "view",
      "type": "function"
    },
    {
      "inputs": [],
      "name": "wmotifAddress",
      "outputs": [
        {
          "internalType": "address",
          "name": "",
          "type": "address"
        }
      ],
      "stateMutability": "view",
      "type": "function"
    },
    {
      "stateMutability": "payable",
      "type": "receive"
    }
  ],
  "bytecode": "0x60806040523480156200001157600080fd5b5060405162003afd38038062003afd83398101604081905262000034916200013a565b60016000556040516301ffc9a760e01b81526001600160a01b038316906301ffc9a7906200006e906380ac58cd60e01b90600401620001a1565b60206040518083038186803b1580156200008757600080fd5b505afa1580156200009c573d6000803e3d6000fd5b505050506040513d601f19601f82011682018060405250810190620000c2919062000178565b620000ea5760405162461bcd60e51b8152600401620000e190620001b6565b60405180910390fd5b60028054600380546001600160a01b039485166001600160a01b03199091161790556104b060015560ff199290931661010002610100600160a81b03199093169290921716600517905562000206565b600080604083850312156200014d578182fd5b82516200015a81620001ed565b60208401519092506200016d81620001ed565b809150509250929050565b6000602082840312156200018a578081fd5b815180151581146200019a578182fd5b9392505050565b6001600160e01b031991909116815260200190565b6020808252601d908201527f446f65736e277420737570706f7274204e465420696e74657266616365000000604082015260600190565b6001600160a01b03811681146200020357600080fd5b50565b6138e780620002166000396000f3fe6080604052600436106100d65760003560e01c8063b7751c711161007f578063e273aece11610059578063e273aece14610226578063e57e10361461023b578063ec91f2a41461024e578063fac2e3d814610263576100dd565b8063b7751c71146101b9578063c89e0985146101cc578063de74e57b146101ec576100dd565b806350a14d73116100b057806350a14d731461014a57806383872bc11461016a578063b296024d14610197576100dd565b806312604245146100df5780631582f801146100ff578063305a67a81461012a576100dd565b366100dd57005b005b3480156100eb57600080fd5b506100dd6100fa366004612c0e565b610283565b34801561010b57600080fd5b50610114610329565b6040516101219190612cc5565b60405180910390f35b34801561013657600080fd5b506100dd610145366004612b49565b610338565b34801561015657600080fd5b506100dd610165366004612c3d565b61042a565b34801561017657600080fd5b5061018a610185366004612b79565b6104fd565b60405161012191906136f7565b3480156101a357600080fd5b506101ac610ae7565b6040516101219190613851565b6100dd6101c7366004612c74565b610af0565b3480156101d857600080fd5b506100dd6101e7366004612c74565b61108d565b3480156101f857600080fd5b5061020c610207366004612b49565b6111ae565b6040516101219e9d9c9b9a99989796959493929190613700565b34801561023257600080fd5b50610114611234565b6100dd610249366004612c74565b611248565b34801561025a57600080fd5b5061018a61127a565b34801561026f57600080fd5b506100dd61027e366004612b49565b611280565b8161028d81611689565b6102b25760405162461bcd60e51b81526004016102a99061301d565b60405180910390fd5b6000838152600460205260409020600901546001600160a01b031633146102eb5760405162461bcd60e51b81526004016102a990612df3565b6000838152600460205260409020600501541561031a5760405162461bcd60e51b81526004016102a99061308b565b61032483836116af565b505050565b6003546001600160a01b031681565b6002600054141561035b5760405162461bcd60e51b81526004016102a990613561565b60026000558061036a81611689565b6103865760405162461bcd60e51b81526004016102a99061301d565b6000828152600460205260409020600701546201000090046001600160a01b03163314806103cd57506000828152600460205260409020600901546001600160a01b031633145b6103e95760405162461bcd60e51b81526004016102a990613348565b600082815260046020526040902060050154156104185760405162461bcd60e51b81526004016102a990612f06565b61042182611726565b50506001600055565b8261043481611689565b6104505760405162461bcd60e51b81526004016102a99061301d565b60008481526004602052604090206007015460ff166002146104845760405162461bcd60e51b81526004016102a9906135cf565b6000848152600460205260409020600901546001600160a01b031633146104bd5760405162461bcd60e51b81526004016102a990613606565b600084815260046020526040902060050154156104ec5760405162461bcd60e51b81526004016102a9906132a5565b6104f78484846118c7565b50505050565b6000600260005414156105225760405162461bcd60e51b81526004016102a990613561565b60026000556040517f01ffc9a70000000000000000000000000000000000000000000000000000000081526001600160a01b038a16906301ffc9a79061058c907f80ac58cd0000000000000000000000000000000000000000000000000000000090600401612d93565b60206040518083038186803b1580156105a457600080fd5b505afa1580156105b8573d6000803e3d6000fd5b505050506040513d601f19601f820116820180604052508101906105dc9190612b2d565b6105f85760405162461bcd60e51b81526004016102a99061363d565b60648360ff161061061b5760405162461bcd60e51b81526004016102a990613439565b6040517f6352211e0000000000000000000000000000000000000000000000000000000081526000906001600160a01b038b1690636352211e90610663908e906004016136f7565b60206040518083038186803b15801561067b57600080fd5b505afa15801561068f573d6000803e3d6000fd5b505050506040513d601f19601f820116820180604052508101906106b39190612b11565b6040517f081812fc0000000000000000000000000000000000000000000000000000000081529091506001600160a01b038b169063081812fc906106fb908e906004016136f7565b60206040518083038186803b15801561071357600080fd5b505afa158015610727573d6000803e3d6000fd5b505050506040513d601f19601f8201168201806040525081019061074b9190612b11565b6001600160a01b0316336001600160a01b031614806107725750336001600160a01b038216145b61078e5760405162461bcd60e51b81526004016102a990613496565b600061079a600561193b565b9050604051806101c001604052808d81526020018c6001600160a01b03168152602001600015158152602001600081526020018b81526020018a8152602001600081526020018981526020018860ff1681526020018660ff168152602001836001600160a01b0316815260200160006001600160a01b03168152602001876001600160a01b03168152602001856001600160a01b0316815250600460008381526020019081526020016000206000820151816000015560208201518160010160006101000a8154816001600160a01b0302191690836001600160a01b0316021790555060408201518160010160146101000a81548160ff021916908315150217905550606082015181600201556080820151816003015560a0820151816004015560c0820151816005015560e082015181600601556101008201518160070160006101000a81548160ff021916908360ff1602179055506101208201518160070160016101000a81548160ff021916908360ff1602179055506101408201518160070160026101000a8154816001600160a01b0302191690836001600160a01b031602179055506101608201518160080160006101000a8154816001600160a01b0302191690836001600160a01b031602179055506101808201518160090160006101000a8154816001600160a01b0302191690836001600160a01b031602179055506101a082015181600a0160006101000a8154816001600160a01b0302191690836001600160a01b031602179055509050508a6001600160a01b03166323b872dd83308f6040518463ffffffff1660e01b81526004016109fe93929190612cd9565b600060405180830381600087803b158015610a1857600080fd5b505af1158015610a2c573d6000803e3d6000fd5b50505050610a3a600561193f565b8a6001600160a01b03168c827f804f18cb6eb2eeef9ae4bfec904ef4d2b03d3364418461d62d4919c3a746407a8d8d8d8d898e8e8e604051610a83989796959493929190613809565b60405180910390a46000818152600460205260409020600901546001600160a01b03161580610ac35750816001600160a01b0316866001600160a01b0316145b15610ad357610ad38160016116af565b60016000559b9a5050505050505050505050565b60025460ff1681565b81610afa81611689565b610b165760405162461bcd60e51b81526004016102a99061301d565b60026000541415610b395760405162461bcd60e51b81526004016102a990613561565b6002600090815583815260046020526040902060088101546001909101546001600160a01b0390911690600160a01b900460ff16610b895760405162461bcd60e51b81526004016102a99061318d565b60008481526004602052604090206007015460ff1660011480610bc0575060008481526004602052604090206007015460ff166002145b610bdc5760405162461bcd60e51b81526004016102a9906132dc565b600084815260046020526040902060030154421015610c0d5760405162461bcd60e51b81526004016102a990612e98565b6000848152600460205260409020600501541580610c535750600084815260046020819052604090912090810154600590910154610c509163ffffffff61194816565b42105b610c6f5760405162461bcd60e51b81526004016102a9906134f3565b600084815260046020526040902060060154831015610ca05760405162461bcd60e51b81526004016102a990612e61565b60028054600086815260046020526040902090910154610cfe91610ce091606491610cd4919060ff1663ffffffff61197616565b9063ffffffff6119b016565b6000868152600460205260409020600201549063ffffffff61194816565b831015610d1d5760405162461bcd60e51b81526004016102a9906131ea565b600260019054906101000a90046001600160a01b03166001600160a01b031663ea7f93126040518163ffffffff1660e01b8152600401602060405180830381600087803b158015610d6d57600080fd5b505af1158015610d81573d6000803e3d6000fd5b505050506040513d601f19601f82011682018060405250810190610da59190612b11565b6000858152600460208190526040918290205491516302e8fe1360e01b81526001600160a01b0393909316926302e8fe1392610de59290918891016137fb565b60206040518083038186803b158015610dfd57600080fd5b505afa158015610e11573d6000803e3d6000fd5b505050506040513d601f19601f82011682018060405250810190610e359190612b2d565b610e515760405162461bcd60e51b81526004016102a990612ecf565b600084815260046020526040902060050154610e8157600084815260046020526040902042600590910155610ebd565b6001600160a01b03811615610ebd5760008481526004602052604090206002810154600a90910154610ebd9183916001600160a01b03166119e2565b6000848152600460205260409020600a0154610ee39084906001600160a01b0316611b20565b60008481526004602081905260408220600281018690556008810180546001600160a01b0319163317905560015491810154600590910154610f3c914291610f309163ffffffff61194816565b9063ffffffff611d1016565b1015610fb057600085815260046020819052604090912090810154600590910154610f9790610f8a90610f7b904290610f30908663ffffffff61194816565b6001549063ffffffff611d1016565b829063ffffffff61194816565b6000878152600460208190526040909120015550600190505b600085815260046020526040908190206001810154905491516001600160a01b03918216929188917fdf3c258fd5ebb54ac1a83c73feafacc466858d3badc3dda9c4034b0da1da54d99161100e9133918b91908a1615908990612cfd565b60405180910390a480156110815760008581526004602081905260409182902060018101548154919092015492516001600160a01b0390921692909188917f7c5d8b1980b451e2d8e5887c47bfdb1153d8b8de54ca953d110c9ec926dba3e39161107891906136f7565b60405180910390a45b50506001600055505050565b8161109781611689565b6110b35760405162461bcd60e51b81526004016102a99061301d565b6000838152600460205260409020600901546001600160a01b03163314806110fa57506000838152600460205260409020600701546201000090046001600160a01b031633145b6111165760405162461bcd60e51b81526004016102a990612f63565b600083815260046020526040902060050154156111455760405162461bcd60e51b81526004016102a99061308b565b60008381526004602052604090819020600681018490556001810154905491516001600160a01b03909116919085907f0409843698c80a52d5e9991fdf99f888ac3f2282b93ddd87bbb63df422907e94906111a19087906136f7565b60405180910390a4505050565b600460208190526000918252604090912080546001820154600283015460038401549484015460058501546006860154600787015460088801546009890154600a9099015497996001600160a01b038089169a60ff600160a01b909a048a169a98999298858416956101008104909416946201000090940483169383169291821691168e565b60025461010090046001600160a01b031681565b6002600054141561126b5760405162461bcd60e51b81526004016102a990613561565b60026000556104218282611d38565b60015481565b8061128a81611689565b6112a65760405162461bcd60e51b81526004016102a99061301d565b600260005414156112c95760405162461bcd60e51b81526004016102a990613561565b600260009081558281526004602052604090206007015460ff1660011480611305575060008281526004602052604090206007015460ff166002145b6113215760405162461bcd60e51b81526004016102a9906132dc565b60008281526004602052604090206005015461134f5760405162461bcd60e51b81526004016102a990613598565b6000828152600460205260409020600301544210156113805760405162461bcd60e51b81526004016102a990612e98565b6000828152600460208190526040909120908101546005909101546113aa9163ffffffff61194816565b4210156113c95760405162461bcd60e51b81526004016102a99061352a565b6000828152600460205260408120600a01546001600160a01b031615611409576000838152600460205260409020600a01546001600160a01b0316611416565b6003546001600160a01b03165b6000848152600460205260408120600201549192509081806114378761231c565b9350915082905060018215151461149157600087815260046020526040902060088101546002820154600a9092015461147e926001600160a01b03928316929091166119e2565b61148787611726565b5050505050610421565b6000878152600460205260409020600901546001600160a01b031615611523576000878152600460205260409020600701546114dd90606490610cd4908690610100900460ff16611976565b93506114ef838563ffffffff611d1016565b60008881526004602052604090206009810154600a90910154919450611523916001600160a01b03918216918791166119e2565b60008781526004602052604090206007810154600a9091015461155a916001600160a01b03620100009091048116918691166119e2565b60008781526004602052604090819020600181015481546007830154600984015460089094015494516001600160a01b039384169592948d947f334843dd102fb480fd982e331134a746cae45483f35aa91db449e96cb90cc5f1946115d494620100009004821693928216929116908b908d908f90612d27565b60405180910390a45050506000938452505060046020819052604083208381556001808201805474ffffffffffffffffffffffffffffffffffffffffff191690556002820185905560038201859055918101849055600581018490556006810184905560078101805475ffffffffffffffffffffffffffffffffffffffffffff191690556008810180546001600160a01b031990811690915560098201805482169055600a9091018054909116905590915550565b6000908152600460205260409020600701546201000090046001600160a01b0316151590565b6000828152600460205260409081902060018101805460ff60a01b1916600160a01b851515021790819055905491516001600160a01b03909116919084907f301b3a878e4bfbb57bd5babb78545aff93752440eb359d65b3ad34de32d842fc9061171a908690612d78565b60405180910390a45050565b60008181526004602081905260409182902060078101546001820154915493517f42842e0e000000000000000000000000000000000000000000000000000000008152620100009091046001600160a01b03908116949216926342842e0e9261179492309287929101612cd9565b600060405180830381600087803b1580156117ae57600080fd5b505af11580156117c2573d6000803e3d6000fd5b505050600083815260046020526040908190206001810154905491516001600160a01b03909116925084907fd5074712d772916d5592447e134f0f148b438068d1cd2559a4b2ab8990c0fba09061181a908690612cc5565b60405180910390a4506000908152600460208190526040822082815560018101805474ffffffffffffffffffffffffffffffffffffffffff19169055600281018390556003810183905590810182905560058101829055600681019190915560078101805475ffffffffffffffffffffffffffffffffffffffffffff191690556008810180546001600160a01b031990811690915560098201805482169055600a90910180549091169055565b6000838152600460205260409081902060018101805460ff60a01b1916600160a01b86151502179081905560038201849055905491516001600160a01b03909116919085907f366ba2ff3ae87084a6b770c4ac0371bf0647243b3ab1a7f5c751d29322aa6161906111a19087908790612d83565b5490565b80546001019055565b60008282018381101561196d5760405162461bcd60e51b81526004016102a990613054565b90505b92915050565b60008261198557506000611970565b8282028284828161199257fe5b041461196d5760405162461bcd60e51b81526004016102a990613248565b60008082116119d15760405162461bcd60e51b81526004016102a990613156565b8183816119da57fe5b049392505050565b6001600160a01b038116611b06576003546040517f2e1a7d4d0000000000000000000000000000000000000000000000000000000081526001600160a01b0390911690632e1a7d4d90611a399085906004016136f7565b600060405180830381600087803b158015611a5357600080fd5b505af1158015611a67573d6000803e3d6000fd5b50505050611a7583836127db565b611b0157600360009054906101000a90046001600160a01b03166001600160a01b031663d0e30db0836040518263ffffffff1660e01b81526004016000604051808303818588803b158015611ac957600080fd5b505af1158015611add573d6000803e3d6000fd5b5050600354611b0193506001600160a01b031691508590508463ffffffff61285216565b610324565b6103246001600160a01b038216848463ffffffff61285216565b6001600160a01b038116611bbb57813414611b4d5760405162461bcd60e51b81526004016102a990612fc0565b600360009054906101000a90046001600160a01b03166001600160a01b031663d0e30db0836040518263ffffffff1660e01b81526004016000604051808303818588803b158015611b9d57600080fd5b505af1158015611bb1573d6000803e3d6000fd5b5050505050611d0c565b6040516370a0823160e01b815281906000906001600160a01b038316906370a0823190611bec903090600401612cc5565b60206040518083038186803b158015611c0457600080fd5b505afa158015611c18573d6000803e3d6000fd5b505050506040513d601f19601f82011682018060405250810190611c3c9190612b61565b9050611c596001600160a01b03831633308763ffffffff6128d516565b6040516370a0823160e01b81526000906001600160a01b038416906370a0823190611c88903090600401612cc5565b60206040518083038186803b158015611ca057600080fd5b505afa158015611cb4573d6000803e3d6000fd5b505050506040513d601f19601f82011682018060405250810190611cd89190612b61565b905080611ceb838763ffffffff61194816565b14611d085760405162461bcd60e51b81526004016102a99061369a565b5050505b5050565b600082821115611d325760405162461bcd60e51b81526004016102a9906130c2565b50900390565b611d4182611689565b611d5d5760405162461bcd60e51b81526004016102a99061301d565b600082815260046020526040902060010154600160a01b900460ff16611d955760405162461bcd60e51b81526004016102a99061318d565b60008281526004602052604090206007015460ff16600314611dc95760405162461bcd60e51b81526004016102a990613311565b600082815260046020526040902060030154421015611dfa5760405162461bcd60e51b81526004016102a990612e98565b6000828152600460205260409020600501541580611e405750600082815260046020819052604090912090810154600590910154611e3d9163ffffffff61194816565b42105b611e5c5760405162461bcd60e51b81526004016102a9906134f3565b6000828152600460205260409020600601548114611e8c5760405162461bcd60e51b81526004016102a990612e2a565b600260019054906101000a90046001600160a01b03166001600160a01b031663ea7f93126040518163ffffffff1660e01b8152600401602060405180830381600087803b158015611edc57600080fd5b505af1158015611ef0573d6000803e3d6000fd5b505050506040513d601f19601f82011682018060405250810190611f149190612b11565b6000838152600460208190526040918290205491516302e8fe1360e01b81526001600160a01b0393909316926302e8fe1392611f549290918691016137fb565b60206040518083038186803b158015611f6c57600080fd5b505afa158015611f80573d6000803e3d6000fd5b505050506040513d601f19601f82011682018060405250810190611fa49190612b2d565b611fc05760405162461bcd60e51b81526004016102a990612ecf565b6000828152600460205260409020426005820155600a0154611fec9082906001600160a01b0316611b20565b600082815260046020526040808220600281018490556008810180546001600160a01b03191633908117909155600180830154925493516001600160a01b03939093169487937fdf3c258fd5ebb54ac1a83c73feafacc466858d3badc3dda9c4034b0da1da54d9936120619390928992612cfd565b60405180910390a46000828152600460205260408120600a01546001600160a01b0316156120a9576000838152600460205260409020600a01546001600160a01b03166120b6565b6003546001600160a01b03165b6000848152600460205260408120600201549192509081806120d78761231c565b9350915082905060018215151461212757600087815260046020526040902060088101546002820154600a9092015461211e926001600160a01b03928316929091166119e2565b611bb187611726565b6000878152600460205260409020600901546001600160a01b0316156121b95760008781526004602052604090206007015461217390606490610cd4908690610100900460ff16611976565b9350612185838563ffffffff611d1016565b60008881526004602052604090206009810154600a909101549194506121b9916001600160a01b03918216918791166119e2565b60008781526004602052604090206007810154600a909101546121f0916001600160a01b03620100009091048116918691166119e2565b60008781526004602052604090819020600181015481546007830154600984015460089094015494516001600160a01b039384169592948d947f334843dd102fb480fd982e331134a746cae45483f35aa91db449e96cb90cc5f19461226a94620100009004821693928216929116908b908d908f90612d27565b60405180910390a450505060009384525050600460208190526040832083815560018101805474ffffffffffffffffffffffffffffffffffffffffff1916905560028101849055600381018490559081018390556005810183905560068101929092555060078101805475ffffffffffffffffffffffffffffffffffffffffffff191690556008810180546001600160a01b031990811690915560098201805482169055600a90910180549091169055565b6000818152600460205260408120600a0154819081906001600160a01b031615612360576000848152600460205260409020600a01546001600160a01b031661236d565b6003546001600160a01b03165b9050612377612a9e565b506040805160a08101825260008681526004602081815284832060028082015486526001600160a01b0380891684880181905230888a01528c875285855260089093015481166060880152875180850189528681526080880152905487517fea7f931200000000000000000000000000000000000000000000000000000000815297519697929663095ea7b3966101009092049092169463ea7f931294848201949093929083900390910190829087803b15801561243457600080fd5b505af1158015612448573d6000803e3d6000fd5b505050506040513d601f19601f8201168201806040525081019061246c9190612b11565b83516040517fffffffff0000000000000000000000000000000000000000000000000000000060e085901b1681526124a8929190600401612d5f565b602060405180830381600087803b1580156124c257600080fd5b505af11580156124d6573d6000803e3d6000fd5b505050506040513d601f19601f820116820180604052508101906124fa9190612b2d565b506002546000868152600460208190526040918290205491517f5bf624220000000000000000000000000000000000000000000000000000000081526101009093046001600160a01b031692635bf624229261255a9290918691016137a8565b600060405180830381600087803b15801561257457600080fd5b505af1158015612588573d6000803e3d6000fd5b50506040516370a0823160e01b8152600092506001600160a01b03851691506370a08231906125bb903090600401612cc5565b60206040518083038186803b1580156125d357600080fd5b505afa1580156125e7573d6000803e3d6000fd5b505050506040513d601f19601f8201168201806040525081019061260b9190612b61565b6002546000888152600460208190526040918290205491517fba3393990000000000000000000000000000000000000000000000000000000081529394506101009092046001600160a01b03169263ba3393999261266c92918791016137a8565b600060405180830381600087803b15801561268657600080fd5b505af1925050508015612697575060015b61273a576002546000878152600460208190526040918290205491517fb320f4590000000000000000000000000000000000000000000000000000000081526101009093046001600160a01b03169263b320f459926126f8929091016136f7565b600060405180830381600087803b15801561271257600080fd5b505af1158015612726573d6000803e3d6000fd5b50600097508796506127d695505050505050565b6040516370a0823160e01b81526000906001600160a01b038516906370a0823190612769903090600401612cc5565b60206040518083038186803b15801561278157600080fd5b505afa158015612795573d6000803e3d6000fd5b505050506040513d601f19601f820116820180604052508101906127b99190612b61565b905060016127cd828463ffffffff611d1016565b95509550505050505b915091565b60408051600080825260208201928390529182916001600160a01b03861691859161280591612ca9565b60006040518083038185875af1925050503d8060008114612842576040519150601f19603f3d011682016040523d82523d6000602084013e612847565b606091505b509095945050505050565b6103248363a9059cbb60e01b8484604051602401612871929190612d5f565b60408051601f198184030181529190526020810180517bffffffffffffffffffffffffffffffffffffffffffffffffffffffff167fffffffff00000000000000000000000000000000000000000000000000000000909316929092179091526128f6565b6104f7846323b872dd60e01b85858560405160240161287193929190612cd9565b606061294b826040518060400160405280602081526020017f5361666545524332303a206c6f772d6c6576656c2063616c6c206661696c6564815250856001600160a01b03166129859092919063ffffffff16565b80519091501561032457808060200190518101906129699190612b2d565b6103245760405162461bcd60e51b81526004016102a9906133dc565b6060612994848460008561299e565b90505b9392505050565b6060824710156129c05760405162461bcd60e51b81526004016102a9906130f9565b6129c985612a5f565b6129e55760405162461bcd60e51b81526004016102a9906133a5565b60006060866001600160a01b03168587604051612a029190612ca9565b60006040518083038185875af1925050503d8060008114612a3f576040519150601f19603f3d011682016040523d82523d6000602084013e612a44565b606091505b5091509150612a54828286612a65565b979650505050505050565b3b151590565b60608315612a74575081612997565b825115612a845782518084602001fd5b8160405162461bcd60e51b81526004016102a99190612dc0565b6040518060a001604052806000815260200160006001600160a01b0316815260200160006001600160a01b0316815260200160006001600160a01b03168152602001612ae8612aed565b905290565b6040518060200160405280600081525090565b803560ff8116811461197057600080fd5b600060208284031215612b22578081fd5b815161196d8161388b565b600060208284031215612b3e578081fd5b815161196d816138a3565b600060208284031215612b5a578081fd5b5035919050565b600060208284031215612b72578081fd5b5051919050565b60008060008060008060008060006101208a8c031215612b97578485fd5b8935985060208a0135612ba98161388b565b975060408a0135965060608a0135955060808a01359450612bcd8b60a08c01612b00565b935060c08a0135612bdd8161388b565b9250612bec8b60e08c01612b00565b91506101008a0135612bfd8161388b565b809150509295985092959850929598565b60008060408385031215612c20578182fd5b823591506020830135612c32816138a3565b809150509250929050565b600080600060608486031215612c51578283fd5b833592506020840135612c63816138a3565b929592945050506040919091013590565b60008060408385031215612c86578182fd5b50508035926020909101359150565b6001600160a01b03169052565b60ff169052565b60008251612cbb81846020870161385f565b9190910192915050565b6001600160a01b0391909116815260200190565b6001600160a01b039384168152919092166020820152604081019190915260600190565b6001600160a01b039490941684526020840192909252151560408301521515606082015260800190565b6001600160a01b039687168152948616602086015292851660408501526060840191909152608083015290911660a082015260c00190565b6001600160a01b03929092168252602082015260400190565b901515815260200190565b9115158252602082015260400190565b7fffffffff0000000000000000000000000000000000000000000000000000000091909116815260200190565b6000602082528251806020840152612ddf81604085016020870161385f565b601f01601f19169190910160400192915050565b6020808252601c908201527f4d757374206265206c697374696e6720696e7465726d65646961727900000000604082015260600190565b60208082526013908201527f4d7573742073656e64206c697374507269636500000000000000000000000000604082015260600190565b6020808252601c908201527f4d7573742073656e64206174206c65617374206c697374507269636500000000604082015260600190565b60208082526012908201527f4c697374206973206e6f74206163746976650000000000000000000000000000604082015260600190565b6020808252601f908201527f42696420696e76616c696420666f722073686172652073706c697474696e6700604082015260600190565b60208082526027908201527f43616e27742063616e63656c20616e206c697374696e67206f6e63652069742760408201527f7320626567756e00000000000000000000000000000000000000000000000000606082015260800190565b6020808252602b908201527f4d757374206265206c697374696e6720696e7465726d656469617279206f722060408201527f746f6b656e206f776e6572000000000000000000000000000000000000000000606082015260800190565b60208082526034908201527f53656e74204d4f5449462056616c756520646f6573206e6f74206d617463682060408201527f7370656369666965642062696420616d6f756e74000000000000000000000000606082015260800190565b60208082526015908201527f4c697374696e6720646f65736e27742065786973740000000000000000000000604082015260600190565b6020808252601b908201527f536166654d6174683a206164646974696f6e206f766572666c6f770000000000604082015260600190565b6020808252601b908201527f4c697374696e672068617320616c726561647920737461727465640000000000604082015260600190565b6020808252601e908201527f536166654d6174683a207375627472616374696f6e206f766572666c6f770000604082015260600190565b60208082526026908201527f416464726573733a20696e73756666696369656e742062616c616e636520666f60408201527f722063616c6c0000000000000000000000000000000000000000000000000000606082015260800190565b6020808252601a908201527f536166654d6174683a206469766973696f6e206279207a65726f000000000000604082015260600190565b60208082526028908201527f4c697374696e67206d75737420626520617070726f76656420627920696e746560408201527f726d656469617279000000000000000000000000000000000000000000000000606082015260800190565b602080825260409082018190527f4d7573742073656e64206d6f7265207468616e206c6173742062696420627920908201527f6d696e426964496e6372656d656e7450657263656e7461676520616d6f756e74606082015260800190565b60208082526021908201527f536166654d6174683a206d756c7469706c69636174696f6e206f766572666c6f60408201527f7700000000000000000000000000000000000000000000000000000000000000606082015260800190565b60208082526018908201527f4c6973742068617320616c726561647920737461727465640000000000000000604082015260600190565b6020808252818101527f4d7573742062652062696464696e67206f722064726f70206c69737454797065604082015260600190565b6020808252601c908201527f4d757374206265206669786564207072696365206c6973745479706500000000604082015260600190565b60208082526035908201527f43616e206f6e6c792062652063616c6c6564206279206c697374696e6720637260408201527f6561746f72206f7220696e7465726d6564696172790000000000000000000000606082015260800190565b6020808252601d908201527f416464726573733a2063616c6c20746f206e6f6e2d636f6e7472616374000000604082015260600190565b6020808252602a908201527f5361666545524332303a204552433230206f7065726174696f6e20646964206e60408201527f6f74207375636365656400000000000000000000000000000000000000000000606082015260800190565b6020808252602f908201527f696e7465726d65646961727946656550657263656e74616765206d757374206260408201527f65206c657373207468616e203130300000000000000000000000000000000000606082015260800190565b6020808252602d908201527f43616c6c6572206d75737420626520617070726f766564206f72206f776e657260408201527f20666f7220746f6b656e20696400000000000000000000000000000000000000606082015260800190565b6020808252600f908201527f4c697374696e6720657870697265640000000000000000000000000000000000604082015260600190565b60208082526018908201527f4c697374696e67206861736e277420636f6d706c657465640000000000000000604082015260600190565b6020808252601f908201527f5265656e7472616e637947756172643a207265656e7472616e742063616c6c00604082015260600190565b60208082526014908201527f4c697374696e67206861736e277420626567756e000000000000000000000000604082015260600190565b60208082526015908201527f4d7573742062652064726f70206c697374547970650000000000000000000000604082015260600190565b60208082526019908201527f4d757374206265206c69737420696e7465726d65646961727900000000000000604082015260600190565b6020808252602f908201527f746f6b656e436f6e747261637420646f6573206e6f7420737570706f7274204560408201527f524337323120696e746572666163650000000000000000000000000000000000606082015260800190565b60208082526034908201527f546f6b656e207472616e736665722063616c6c20646964206e6f74207472616e60408201527f7366657220657870656374656420616d6f756e74000000000000000000000000606082015260800190565b90815260200190565b60006101c0820190508f82526001600160a01b038f1660208301528d151560408301528c60608301528b60808301528a60a08301528960c08301528860e083015261374f610100830189612ca2565b61375d610120830188612ca2565b61376b610140830187612c95565b613779610160830186612c95565b613787610180830185612c95565b6137956101a0830184612c95565b9f9e505050505050505050505050505050565b600060c0820190508382528251602083015260208301516001600160a01b038082166040850152806040860151166060850152806060860151166080850152505060808301515160a08301529392505050565b918252602082015260400190565b9788526020880196909652604087019490945260ff92831660608701526001600160a01b039182166080870152811660a0860152911660c08401521660e08201526101000190565b60ff91909116815260200190565b60005b8381101561387a578181015183820152602001613862565b838111156104f75750506000910152565b6001600160a01b03811681146138a057600080fd5b50565b80151581146138a057600080fdfea264697066735822122000b283d36c60269c01f5ba9398cad555141c893b08250a31ae9f74c3d874e65464736f6c63430006080033",
  "linkReferences": {},
  "deployedLinkReferences": {}
}